:061A22001219C902000EBA
:08000300D20C7548010212162F
:0B19FA00121A2212000312199780FB42
:03000B000216C218
:1016C200C0E0C0F0C083C082C0D075D000C000C0EE
:1016D20001C002C003C004C005C006C007758CB1BA
:1016E200758AE0C28D0561D3E5669400E5659400D4
:1016F2004008E566156670021565D3E5689400E555
:101702006794004008E568156870021567300A0A98
:101712000563E563700A0562800675620075630001
:10172200300B2D200C2AE4FFFEFDFC787C1211BE4A
:10173200C31211A1601A787C1211B2EF24FFFFEEDE
:1017420034FFFEED34FFFDEC34FFFC787C1211CB4C
:10175200D007D006D005D004D003D002D001D000EB
:0B176200D0D0D082D083D0F0D0E03295
:0D19E100E4F5C7F5C5F5C675C380F5C42251
:1019630075C78075C5018FC48EC3C2AF75C65A755E
:0A197300C6A500AFC2D2AF0219E111
:10197D0075C78075C5028FC48EC38DC2C2AF75C6C3
:0A198D005A75C6A500D2AF0219E199
:1019B10075C78075C5038FC48EC3C2AF75C65A750E
:0819C100C6A500D2AF0219E136
:1019C900438E805389F0438901758AE0758CB1C2D1
:0819D9008DD28CD2A9D2AF22FD
:10000E00438780759850438E04759CF3438E01434D
:03001E008E10221F
:0A1A050000007F037E69DEFEDFFCB7
:011A0F0022B4
:08176D008B0D8A0E890F8D100F
:08177500E4FDEDC3951050776F
:10177D00C2AFAB0DAA0EA90F8D827583001210DFBB
:10178D00FF139200EFA2E19201A2E29202A2E39274
:10179D0003A2E49204A2E59205A2E6920633920713
:1017AD00C2B5121A05A20092B5121A05A20192B580
:1017BD00121A05A20292B5121A05A20392B5121AB7
:1017CD0005A20492B5121A05A20592B5121A05A228
:1017DD000692B5121A05A20792B5121A05D2B512C4
:0417ED001A05D2AF58
:0317F1000D8083E5
:0117F40022D2
:06193D008B0D8A0E890FDC
:10194300E4FFEFC39D5018AB0DAA0EA90F8F82754C
:0F19530083001210DFF599C2993099FD0F80E3E0
:011962002262
:081A1A008F99C2993099FD2259
:1016160020B60830B705753402800E30B60820B7FC
:10162600057534038003753401E53465226016E5DB
:10163600226012D20AC3E56394C8E56294004008AA
:1016460075C720800385342220B236756700756819
:1016560064E5684567602A30B207E4F567F5688097
:10166600F0C3E5689405E567940050E520B2E2E52D
:1016760045B54809787C1211D700000000D20B80CE
:10168600D020B337200B34E54B7030F5657566C84E
:10169600E5664565602530B307E4F565F56680F0D7
:1016A600D3E5669405E565940050E520B3E2200B8A
:0C16B600DFE54B70DBD20BF56180D52224
:101216007594FFE4F593F5927591FFF596F595F5BE
:10122600B2F5B1D20C7548017F017E201219638F89
:1012360064E56430E007C2A74396018005D2A74360
:101246009501E56430E007C2A64396028005D2A662
:10125600439502E56430E007C2A54396048005D2B3
:10126600A5439504E56430E007C2A44396088005CB
:10127600D2A4439508E56430E007C2A343961080E4
:1012860005D2A3439510E56430E007C2A243962039
:101296008005D2A2439520E56430E007C2A14396BB
:1012A600408005D2A1439540E56430E007C2A043E3
:1012B60096808005D2A04395807F027E2012196316
:1012C6007880A6077F127E201219637881A6077F91
:1012D600037E201219637882A6077F137E201219D7
:1012E600637883A6077F047E201219637884A60795
:1012F6007F147E201219637885A6077F057E20124B
:1013060019637886A6077F157E201219637887A64B
:10131600077F067E201219637888A6077F167E202F
:101326001219637889A6077F077E20121963788AC7
:10133600A6077F177E20121963788BA6077F087E83
:1013460020121963788CA6077F187E2012196378FD
:101356008DA6077F097E20121963788EA6077F194E
:101366007E20121963788FA6077F0A7E20121963E2
:101376007890A6077F1A7E201219637891A6077FB8
:101386000B7E201219637892A6077F1B7E20121906
:10139600637893A6077F0C7E201219637894A607BC
:1013A6007F1C7E201219637895A6077F0D7E20127A
:1013B60019637896A6077F1D7E201219637897A673
:1013C600077F0E7E201219637898A6077F1E7E205F
:1013D6001219637899A6077F0F7E20121963789AEF
:1013E600A6077F1F7E20121963789BA6077F107EB3
:1013F60020121963789CA6077420FFFE12196378E1
:101406009DA6077F117E20121963789EA6077F216D
:0A1416007E20121963789FA60722BA
:100D0F00A290E433F524A291E433F525A292E433C3
:100D1F00F526A293E433F527A294E433F528A295A0
:100D2F00E433F529A296E433F52AA297E433F52BA1
:100D3F00A2A7E433F52CA2A6E433F52DA2A5E43344
:100D4F00F52EA2A4E433F52FA2A3E433F530A2A22B
:100D5F00E433F531A2A1E433F532A2A0E433F53345
:100D6F00AF6A7E00EF640170097880E62423F8E60D
:100D7F00600FEF64024E700E7881E62423F8E67060
:100D8F0005E4F56AF535AF6B7E00EF640170097805
:100D9F0082E62423F8E6600FEF64024E700E78832C
:100DAF00E62423F8E67005E4F56BF536AF6C7E00AC
:100DBF00EF640170097884E62423F8E6600FEF648E
:100DCF00024E700E7885E62423F8E67005E4F56C84
:100DDF00F537AF6D7E00EF640170097886E6242346
:100DEF00F8E6600FEF64024E700E7887E62423F862
:100DFF00E67005E4F56DF538AF6E7E00EF640170B7
:100E0F00097888E62423F8E6600FEF64024E700E2F
:100E1F007889E62423F8E67005E4F56EF539AF6FAF
:100E2F007E00EF64017009788AE62423F8E6600FEC
:100E3F00EF64024E700E788BE62423F8E67005E41B
:100E4F00F56FF53AAF707E00EF64017009788CE6AC
:100E5F002423F8E6600FEF64024E700E788DE624BF
:100E6F0023F8E67005E4F570F53BAF717E00EF6493
:100E7F00017009788EE62423F8E6600FEF64024EC6
:100E8F00700E788FE62423F8E67005E4F571F53CD3
:100E9F00AF727E00EF640170097890E62423F8E6C4
:100EAF00600FEF64024E700E7891E62423F8E6701F
:100EBF0005E4F572F53DAF737E00EF6401700978BC
:100ECF0092E62423F8E6600FEF64024E700E7893DB
:100EDF00E62423F8E67005E4F573F53EAF747E0063
:100EEF00EF640170097894E62423F8E6600FEF644D
:100EFF00024E700E7895E62423F8E67005E4F5743B
:100F0F00F53FAF757E00EF640170097896E62423F4
:100F1F00F8E6600FEF64024E700E7897E62423F820
:100F2F00E67005E4F575F540AF767E00EF6401706D
:100F3F00097898E62423F8E6600FEF64024E700EEE
:100F4F007899E62423F8E67005E4F576F541AF7756
:100F5F007E00EF64017009789AE62423F8E6600FAB
:100F6F00EF64024E700E789BE62423F8E67005E4DA
:100F7F00F577F542AF787E00EF64017009789CE653
:100F8F002423F8E6600FEF64024E700E789DE6247E
:100F9F0023F8E67005E4F578F543AF797E00EF644A
:100FAF00017009789EE62423F8E6600FEF64024E85
:100FBF00700E789FE62423F8E67005E4F579F54482
:010FCF0022FF
:10142000E5356004D2808002C280E5366004D28156
:101430008002C281E5376004D2828002C282E53830
:101440006004D2838002C283E5396004D2848002C2
:10145000C284E53A6004D2858002C285E53B60041F
:10146000D2868002C286E53C6004D2878002C287B1
:10147000E5645480C413131354016401700AE53DFC
:101480006004D2A78002C2A7E5645440C413135479
:10149000036401700AE53E6004D2A68002C2A6E59C
:1014A000645420C41354076401700AE53F6004D2F9
:1014B000A58002C2A5E5645410C4540F6401700AEB
:1014C000E5406004D2A48002C2A4E564540813136A
:1014D00013541F6401700AE5416004D2A38002C264
:1014E000A3E56454041313543F6401700AE5426099
:1014F00004D2A28002C2A2E5645402C31364017044
:101500000AE5436004D2A18002C2A1E564540164EB
:0D151000017009E5446003D2A022C2A022B0
:101997001217F5300B0912151D120D0F121420E541
:0A19A7006060030209741216162294
:0A1A10007EFF0612000001FEF7EF52
:02187B008F0CD0
:10187D0078BB7C007D007BFF7A1A79107E007F0A91
:10188D001210A078C1A60C78BDE6FF18E62FFFE474
:10189D0033FE78BEE67C002FFFEC3EFE08E62FFF00
:1018AD00EC3EFE08E62FFFEC3EFE08E62FFFEC3E79
:1018BD00FEC3E49FE49E08F679BCE778BD260826B2
:1018CD00082608260826FFC3E49F78C3F67B007A16
:0718DD0000197D0A02176DDE
:020026008F0C3D
:10002800E54B6025E478CEF678CEE6C39413748069
:1000380094804003020571E6FF244CF8E6FE74BB89
:100048002FF8A60678CE0680DFE53424E1FFE434F5
:1000580020FE1219638F45E53424FE700302021C4A
:100068001470030203C424026003020571E50C2422
:10007800FFFFE434FFFE7C007D09121140E42FFFEE
:10008800EE3421FE12196378CBA607E50C24FFFF96
:10009800E434FFFE7C007D09121140EF2401FFEEDD
:1000A8003421FE12196378CCA607E50C24FFFFE47F
:1000B80034FFFE7C007D09121140EF2402FFEE346C
:1000C80021FE12196378CDA607E408F608760178B0
:1000D800CEE6FFC3940874809480503808E6FE7812
:1000E800CC568EF08425E0FE78CFE6FD78CB568D91
:1000F800F0842EFE78CFE6FD78CD568DF08475F02D
:1001080003A42EFE74BB2FF8A60678CE0608E625B3
:10011800E0F680BBE50C24FFFFE434FFFE7C007DA5
:1001280009121140EF2403FFEE3421FE12196378FF
:10013800CBA607E50C24FFFFE434FFFE7C007D0915
:10014800121140EF2404FFEE3421FE12196378CC1B
:10015800A607E50C24FFFFE434FFFE7C007D0912AE
:100168001140EF2405FFEE3421FE12196378CDA665
:100178000708760808760178CEE6FFC394107480E5
:100188009480503808E6FE78CC568EF08425E0FE40
:1001980078CFE6FD78CB568DF0842EFE78CFE6FD3D
:1001A80078CD568DF08475F003A42EFE74BB2FF81D
:1001B800A60678CE0608E625E0F680BBE50C24FF07
:1001C800FFE434FFFE7C007D09121140EF2406FF96
:1001D800EE3421FE12196378CBA607E50C24FFFF45
:1001E800E434FFFE7C007D09121140EF2407FFEE86
:1001F8003421FE12196378CCA607E50C24FFFFE42E
:1002080034FFFE7C007D09121140EF2408FFEE3414
:1002180021020569E50C24FFFFE434FFFE7C007D24
:1002280009121140EF2455FFEE3427FE12196378A6
:10023800CBA607E50C24FFFFE434FFFE7C007D0914
:10024800121140EF2456FFEE3427FE12196378CCC2
:10025800A607E50C24FFFFE434FFFE7C007D0912AD
:100268001140EF2457FFEE3427FE12196378CDA60C
:1002780007E408F608760178CEE6FFC39408748090
:100288009480503808E6FE78CC568EF08425E0FE3F
:1002980078CFE6FD78CB568DF0842EFE78CFE6FD3C
:1002A80078CD568DF08475F003A42EFE74BB2FF81C
:1002B800A60678CE0608E625E0F680BBE50C24FF06
:1002C800FFE434FFFE7C007D09121140EF2458FF43
:1002D800EE3427FE12196378CBA607E50C24FFFF3E
:1002E800E434FFFE7C007D09121140EF2459FFEE33
:1002F8003427FE12196378CCA607E50C24FFFFE427
:1003080034FFFE7C007D09121140EF245AFFEE34C1
:1003180027FE12196378CDA60708760808760178B3
:10032800CEE6FFC3941074809480503808E6FE78B7
:10033800CC568EF08425E0FE78CFE6FD78CB568D3E
:10034800F0842EFE78CFE6FD78CD568DF08475F0DA
:1003580003A42EFE74BB2FF8A60678CE0608E62561
:10036800E0F680BBE50C24FFFFE434FFFE7C007D53
:1003780009121140EF245BFFEE3427FE121963784F
:10038800CBA607E50C24FFFFE434FFFE7C007D09C3
:10039800121140EF245CFFEE3427FE12196378CC6B
:1003A800A607E50C24FFFFE434FFFE7C007D09125C
:1003B8001140EF245DFFEE3427020569E50C24FFA8
:1003C800FFE434FFFE7C007D09121140EF24AAFFF0
:1003D800EE342DFE12196378CBA607E50C24FFFF37
:1003E800E434FFFE7C007D09121140EF24ABFFEEE0
:1003F800342DFE12196378CCA607E50C24FFFFE420
:1004080034FFFE7C007D09121140EF24ACFFEE346E
:100418002DFE12196378CDA607E408F60876017850
:10042800CEE6FFC3940874809480503808E6FE78BE
:10043800CC568EF08425E0FE78CFE6FD78CB568D3D
:10044800F0842EFE78CFE6FD78CD568DF08475F0D9
:1004580003A42EFE74BB2FF8A60678CE0608E62560
:10046800E0F680BBE50C24FFFFE434FFFE7C007D52
:1004780009121140EF24ADFFEE342DFE12196378F6
:10048800CBA607E50C24FFFFE434FFFE7C007D09C2
:10049800121140EF24AEFFEE342DFE12196378CC12
:1004A800A607E50C24FFFFE434FFFE7C007D09125B
:1004B8001140EF24AFFFEE342DFE12196378CDA65C
:1004C8000708760808760178CEE6FFC39410748092
:1004D8009480503808E6FE78CC568EF08425E0FEED
:1004E80078CFE6FD78CB568DF0842EFE78CFE6FDEA
:1004F80078CD568DF08475F003A42EFE74BB2FF8CA
:10050800A60678CE0608E625E0F680BBE50C24FFB3
:10051800FFE434FFFE7C007D09121140EF24B0FF98
:10052800EE342DFE12196378CBA607E50C24FFFFE5
:10053800E434FFFE7C007D09121140EF24B1FFEE88
:10054800342DFE12196378CCA607E50C24FFFFE4CE
:1005580034FFFE7C007D09121140EF24B2FFEE3417
:0F0568002DFE12196378CDA6077B007A0079BBB0
:010577002261
:06151D00200C030215F58D
:10152300AF481200268B088A09890AE4F50BC3E544
:101533000B9410748094805057AB08AA09A90A85AC
:101543000B827583001210DFFF7E0070097435254E
:101553000BF8E4F68036EF64014E7004743580189E
:10156300AB08AA09A90A850B827583001210DFFF55
:101573007E0064027009746A250BF87601800DEF12
:1015830064034E7007746A250BF87602050B809E80
:10159300AB08AA09A90A9000101210DFFFD3940028
:1015A30074809480400312187BAB08AA09A90A909F
:1015B30000111210DFFE9000121210DF7C002400D5
:1015C300FFEC3EFEE4FD787C1211CBE4FFFEFDFC54
:1015D300787C1211BED31211A14014787C1211B27F
:1015E300E47BE87A03F9F8121152787C1211CBC22A
:0115F3000CEB
:1015F40022E4FFFEFDFC787C1211BEC31211A1701F
:10160400100548D20CE548D395454005754801C2FC
:021614000B22A7
:051A2800FD03A010B059
:030023000218E4DC
:1018E400C0E0C0D075D000C000C004C006C007303E
:1018F400983AC29878BAE624A1F8A69978A1E66441
:10190400FD702578BA0678A2E62402FFE433FE7857
:10191400BAE67C00B50715ECB5061178B90678BAB5
:10192400760078A17600800478BA7600D007D006D5
:09193400D004D000D0D0D0E03284
:1017F50078BB76FD78B9E6607C78BC760178A2E6A0
:101805002401FFE433FE78BCE6FDC39FEE6480F857
:10181500748098500D74A12DF8E678BB26F608065D
:1018250080DB78BCE624A1F918E667702B08F6780A
:10183500A2E614FF78BCE6FEC39F501174A32EF8F0
:10184500E6FF74BD2EF8A60778BC0680E27B007A19
:101855000079BD120578801A78BD76FD08760308F3
:1018650076A0E408F60876A0FB7A0079BD7D05121E
:05187500193D78B916D1
:01187A00224B
:060578008B088A09890AC4
:10057E0078CA7C007D007BFF7A1A79287E007F0581
:10058E001210A0AB08AA09A90A1210C61211F00681
:10059E002B00068F0106A60206A60306A60406A6D3
:1005AE000506A60606A60706A60806A60906A60AB4
:1005BE0006A60B06A60C06A60D06A60E06A60F068A
:1005CE00A61006A61106DA1206DA1306DA1406DAF1
:1005DE001506DA1606DA1706DA1806DA1906DA1A20
:1005EE0006DA1B06DA1C06DA1D06DA1E06DA1F0606
:1005FE00DA2006DA2107222207612307B02407FE3C
:10060E002508532608C22B086830087E310895321B
:10061E000973330895350908A00000093EC20B780E
:10062E00CD76F00876907B007A0079CA7D05121996
:10063E003D7F007E201219B17F007E221219B17FFC
:10064E00007E241219B17F007E261219B17F007E22
:10065E00281219B17F007E2A1219B17F007E2C124A
:10066E0019B17F007E2E1219B17F007E301219B1A2
:10067E007F007E321219B178CD76100876B002075F
:10068E00ADAB08AA09A90A9000021210DFFD7F0186
:10069E007E2012197D0207ADAB08AA09A90A121015
:1006AE00C62400FFE43420FE9000011210DFFD127C
:1006BE00197DAB08AA09A90A1210C62410FFE4344A
:1006CE0020FE9000021210DFFD02075BE4F50BC363
:1006DE00E50B940C748094805037AB08AA09A90AD4
:1006EE001210C624EEFFE434FFFE7C007D0C1211C6
:1006FE0040EF2422FFEE3420FEAD0BEF2DFFEC3E3B
:10070E00FE8D828C83A31210DFFD12197D050B80E6
:10071E00BE0207ADAB08AA09A90A9000011210DFAC
:10072E00FD7FE27E2012197DAB08AA09A90A90006E
:10073E00021210DFFD7FE37E2012197DAB08AA099D
:10074E00A90A9000031210DFFD7FE47E2012197DAE
:10075E0002084AE4F50B750C09C3E50B9409748085
:10076E009480503BAB08AA09A90A9000011210DF31
:10077E002401FFE433FE7C007D09121140C3EF9586
:10078E000CFFEE9CCF2400CF3421FE850B828C8390
:10079E00A3A31210DFFD12197D050B150C80BA02F2
:1007AE00084AE4F50B750C09C3E50B9409748094A3
:1007BE0080503BAB08AA09A90A9000011210DF2451
:1007CE0001FFE433FE7C007D09121140C3EF950C4E
:1007DE00FFEE9CCF2455CF3427FE850B828C83A34E
:1007EE00A31210DFFD12197D050B150C80BA804C7B
:1007FE00E4F50B750C09C3E50B94097480948050D5
:10080E003BAB08AA09A90A9000011210DF2401FFD0
:10081E00E433FE7C007D09121140C3EF950CFFEE10
:10082E009CCF24AACF342DFE850B828C83A3A312DA
:10083E0010DFFD12197D050B150C80BA7B007A00B6
:10084E0079CA02096EAB08AA09A90A900001121012
:10085E00DF64F060030209738029AB08AA09A90AB4
:10086E009000011210DF64017003D20922C2092226
:10087E00AB08AA09A90A9000011210DF64016003F7
:10088E0002097375C72022E4F50BC3E50B941274AD
:10089E008094804003020973850B82758300A3AB9D
:1008AE0008AA09A90A1210DFFF744C250BF8A60737
:1008BE00050B80D6AB08AA09A90A9000011210DF19
:1008CE006401700475600122AB08AA09A90A74FDBF
:1008DE0012110CAB08AA09A90A9000017403121197
:1008EE001E90000274A012111E900003E412111E3D
:1008FE0090000474A012111E8066AB08AA09A90A02
:10090E009000011210DFFF7E006410700F054AE5A3
:10091E004A70020549854946F5478014EF4E70022C
:10092E008008EF64904E7008055F854946854A47FA
:10093E00AB08AA09A90A74FD12110CAB08AA09A9E1
:10094E000A900001740312111E90000274A012117D
:10095E001E900003E412111E90000474A012111ECA
:05096E007D0512193D9A
:010973002261
:1009740078BB76FDE547244F78BDF6E54660030273
:100984000D09E54714B427004003020D0990099F9F
:1009940075F003A4C58325F0C58373020A14020A03
:1009A40032020A32020A32020A32020A32020A32DB
:1009B400020A32020A32020A32020A32020A3202FB
:1009C4000A32020A32020A32020A32020A32020AE3
:1009D4006E020A6E020A6E020A6E020A6E020A6E43
:1009E400020A6E020A6E020A6E020A6E020A6E029F
:1009F4000A6E020A6E020A6E020A6E020A6E020A87
:100A0400DA020B7A020C1A020CB6020CDF020D0693
:100A140078BC76030876507F017E2012196378BE75
:100A2400EFF679BBE778BC2608262F020B6E78BC5C
:100A34007604E42547FFE5463420FE12196378BEA8
:100A4400A607E5472410FFE5463420FE1219637813
:100A5400BFEFF679BBE778BC26082608262F78C0B6
:100A6400F67B007A007D06020D0178BC760EE478F0
:100A7400CBF678CBE6FBC3940C748094805029AEFB
:100A840046AF477C007D0C121140EF244AFFEE3440
:100A94001FFEEB2FFFEC3EFE12196378CBE624BE5B
:100AA400F8A60778CB0680CA79BBE778BC26082667
:100AB40008260826082608260826082608260826C2
:100AC400082608260826082679CAF77B007A0079C2
:100AD400BB7D10020D0178BC760C78BEA65FE4786D
:100AE400CBF608760978CBE6C394097480948050D9
:100AF40032E55F2401FFE433FE7C007D09121140DE
:100B040078CCE6FDC3EF9DFFEE9CCF2400CF3421CB
:100B1400FE12196378CBE624BFF8A60778CB060843
:100B24001680C279BBE778BC260826082608260862
:100B340026082608260826082608260826082679D0
:100B4400C8F77B007A0079BB7D0E12193DE55FC3BF
:100B540095695003020D0978BC76030876A00876DF
:100B6400FF79BBE778BC2608261478BFF67B007AA9
:100B7400007D05020D0178BC760C78BEA65FE47892
:100B8400CBF608760978CBE6C39409748094805038
:100B940032E55F2401FFE433FE7C007D091211403D
:100BA40078CCE6FDC3EF9DFFEE9CCF2455CF3427D0
:100BB400FE12196378CBE624BFF8A60778CB0608A3
:100BC4001680C279BBE778BC2608260826082608C2
:100BD4002608260826082608260826082608267930
:100BE400C8F77B007A0079BB7D0E12193DE55FC31F
:100BF400957A5003020D0978BC76030876A008762E
:100C0400FF79BBE778BC2608261478BFF67B007A08
:100C1400007D05020D0178BC760C78BEA65FE478F1
:100C2400CBF608760978CBE6C39409748094805097
:100C340032E55F2401FFE433FE7C007D091211409C
:100C440078CCE6FDC3EF9DFFEE9CCF24AACF342DD4
:100C5400FE12196378CBE624BFF8A60778CB060802
:100C64001680C279BBE778BC260826082608260821
:100C7400260826082608260826082608260826798F
:100C8400C8F77B007A0079BB7D0E12193DE55FC37E
:100C9400957B407178BC76030876A00876FF79BB13
:100CA400E778BC2608261478BFF67B007A007D0519
:100CB400804B78BC760308767408A66908A67A087F
:100CC400A67B79BBE778BC26082608260826257B60
:100CD40078C1F67B007A007D07802278BC76030811
:100CE400767508761008767579BBE778BC260826F1
:100CF4000826247578C0F67B007A007D0712193D1A
:0A0D04008003E4F560E4F546F547CE
:010D0E0022C2
:030000000219EEF4
:0C19EE00787FE4F6D8FD7581CF0219FA6D
:100FD000E709F608DFFA8046E709F208DFFA803E03
:100FE00088828C83E709F0A3DFFA8032E309F608F0
:100FF000DFFA8078E309F208DFFA807088828C8358
:10100000E309F0A3DFFA806489828A83E0A3F6080B
:10101000DFFA805889828A83E0A3F208DFFA804CE5
:1010200080D280FA80C680D4806980F280338010BC
:1010300080A680EA809A80A880DA80E280CA803325
:1010400089828A83ECFAE493A3C8C582C8CCC5839D
:10105000CCF0A3C8C582C8CCC583CCDFE9DEE7806D
:101060000D89828A83E493A3F608DFF9ECFAA9F0EC
:10107000EDFB2289828A83ECFAE0A3C8C582C8CC42
:10108000C583CCF0A3C8C582C8CCC583CCDFEADE5B
:10109000E880DB89828A83E493A3F208DFF980CCBD
:1010A00088F0EF60010E4E60C388F0ED2402B404B6
:1010B0000050B9F582EB2402B4040050AF2323455D
:0610C00082239010207352
:1010C600BB010689828A83E0225002E722BBFE0228
:0910D600E32289828A83E493225B
:1010DF00BB010CE58229F582E5833AF583E02250C6
:1010EF0006E92582F8E622BBFE06E92582F8E22210
:0D10FF00E58229F582E5833AF583E493222A
:10110C00BB010689828A83F0225002F722BBFE01C2
:02111C00F322BC
:10111E00F8BB010DE58229F582E5833AF583E8F007
:10112E00225006E92582C8F622BBFE05E92582C8B3
:02113E00F2229B
:10114000EF8DF0A4A8F0CF8CF0A428CE8DF0A42EC3
:02115000FE227D
:10115200E88FF0A4CC8BF0A42CFCE98EF0A42CFC3C
:101162008AF0EDA42CFCEA8EF0A4CDA8F08BF0A4BA
:101172002DCC3825F0FDE98FF0A42CCD35F0FCEB19
:101182008EF0A4FEA9F0EB8FF0A4CFC5F02ECD39DE
:0F119200FEE43CFCEAA42DCE35F0FDE43CFC224B
:1011A100EB9FF5F0EA9E42F0E99D42F0E89C45F0A4
:0111B100221B
:0C11B200E6FC08E6FD08E6FE08E6FF2269
:0D11BE00E6FB08E6F908E6FA08E6CBF822A1
:0C11CB00ECF608EDF608EEF608EFF62250
:1011D700D083D082E493F608740193F608740293DF
:0911E700F608740393F674047316
:1011F000D083D082F8E4937012740193700DA3A38E
:1012000093F8740193F5828883E4737402936860A1
:06121000EFA3A3A380DFA1
:00000001FF
