:061513001214B202000EEA
:06151900D20C7546012210
:0B14F3001215131215191214CA80FB09
:03000B000211BE21
:1011BE00C0E0C0F0C083C082C0D075D000C000C0F7
:1011CE0001C002C003C004C005C006C007758CB1C3
:1011DE00758AE0C28D055FD3E5649400E5639400E3
:1011EE004008E564156470021563D3E5669400E566
:1011FE006594004008E566156670021565300A0AAA
:10120E000561E561700A0560800675600075610014
:10121E00300B2D200C2AE4FFFEFDFC787A120CBA5E
:10122E00C3120C9D601A787A120CAEEF24FFFFEEFB
:10123E0034FFFEED34FFFDEC34FFFC787A120CC760
:10124E00D007D006D005D004D003D002D001D000F4
:0B125E00D0D0D082D083D0F0D0E0329E
:0D14DA00E4F5C7F5C5F5C675C380F5C4225D
:1014660075C78075C5018FC48EC3C2AF75C65A7560
:0A147600C6A500AFC2D2AF0214DA1F
:1014800075C78075C5028FC48EC38DC2C2AF75C6C5
:0A1490005A75C6A500D2AF0214DAA7
:10149A0075C78075C5038FC48EC3C2AF75C65A752A
:0814AA00C6A500D2AF0214DA5E
:1014B200438E805389F0438901758AE0758CB1C2ED
:0814C2008DD28CD2A9D2AF2219
:10000E00438780759850438E04759CF3438E01434D
:03001E008E10221F
:0A14FE0000007F037E69DEFEDFFCC4
:0115080022C0
:0812F6008B0D8A0E890F8D108B
:0812FE00E4FDEDC395105077EB
:10130600C2AFAB0DAA0EA90F8D82758300120BED2D
:10131600FF139200EFA2E19201A2E29202A2E392EF
:1013260003A2E49204A2E59205A2E692063392078E
:10133600C2B51214FEA20092B51214FEA20192B515
:101346001214FEA20292B51214FEA20392B5121452
:10135600FEA20492B51214FEA20592B51214FEA2C4
:101366000692B51214FEA20792B51214FED2B51259
:0413760014FED2AFE0
:03137A000D808360
:01137D00224D
:061440008B168A178918C3
:10144600E4FFEFC39D5018AB16AA17A9188F827533
:0F1456008300120BEDF599C2993099FD0F80E3D9
:011465002264
:080003008F99C2993099FD228A
:1011120020B60830B705753402800E30B60820B705
:10112200057534038003753401E53465226016E5E4
:10113200226012D20AC3E56194C8E56094004008B7
:1011420075C720800385342220B236756500756626
:1011520064E5664565602A30B207E4F565F56680A8
:10116200F0C3E5669405E565940050E520B2E2E53A
:1011720045B54609787A120CD300000000D20B80E4
:10118200D020B337200B34E5497030F5637564C85D
:10119200E5644563602530B307E4F563F56480F0E8
:1011A200D3E5649405E563940050E520B3E2200B97
:0C11B200DFE54970DBD20BF55F80D52231
:100D12007594FFE4F593F5927591FFF596F595F5C7
:100D2200B2F5B1D20C7546017F017E201214668F96
:100D320062E56230E007C2A74396018005D2A7436D
:100D42009501E56230E007C2A64396028005D2A66D
:100D5200439502E56230E007C2A54396048005D2BE
:100D6200A5439504E56230E007C2A44396088005D6
:100D7200D2A4439508E56230E007C2A343961080EF
:100D820005D2A3439510E56230E007C2A243962044
:100D92008005D2A2439520E56230E007C2A14396C6
:100DA200408005D2A1439540E56230E007C2A043EE
:100DB20096808005D2A04395807F027E2012146621
:100DC200787EA6077F127E20121466787FA6077FA0
:100DD200037E201214667880A6077F137E201214E9
:100DE200667881A6077F047E201214667882A607A1
:100DF2007F147E201214667883A6077F057E201258
:100E020014667884A6077F157E201214667885A65C
:100E1200077F067E201214667886A6077F167E203C
:100E22001214667887A6077F077E201214667888D8
:100E3200A6077F177E201214667889A6077F087E90
:100E420020121466788AA6077F187E20121466780C
:100E52008BA6077F097E20121466788CA6077F195D
:100E62007E20121466788DA6077F0A7E20121466F1
:100E7200788EA6077F1A7E20121466788FA6077FC7
:100E82000B7E201214667890A6077F1B7E20121418
:100E9200667891A6077F0C7E201214667892A607C8
:100EA2007F1C7E201214667893A6077F0D7E201287
:100EB20014667894A6077F1D7E201214667895A684
:100EC200077F0E7E201214667896A6077F1E7E206C
:100ED2001214667897A6077F0F7E20121466789800
:100EE200A6077F1F7E201214667899A6077F107EC0
:100EF20020121466789AA6077420FFFE12146678F0
:100F02009BA6077F117E20121466789CA6077F217C
:0A0F12007E20121466789DA60722C7
:10057800A290E433F524A291E433F525A292E43362
:10058800F526A293E433F527A294E433F528A2953F
:10059800E433F529A296E433F52AA297E433F52B40
:1005A800A2A7E433F52CA2A6E433F52DA2A5E433E3
:1005B800F52EA2A4E433F52FA2A3E433F530A2A2CA
:1005C800E433F531A2A1E433F532A2A0E433F533E4
:1005D800AF687E00EF64017009787EE62423F8E6B0
:1005E800600FEF64024E700E787FE62423F8E67001
:1005F80005E4F568F535AF697E00EF6401700978A8
:1006080080E62423F8E6600FEF64024E700E7881CE
:10061800E62423F8E67005E4F569F536AF6A7E004E
:10062800EF640170097882E62423F8E6600FEF642E
:10063800024E700E7883E62423F8E67005E4F56A26
:10064800F537AF6B7E00EF640170097884E62423E8
:10065800F8E6600FEF64024E700E7885E62423F802
:10066800E67005E4F56BF538AF6C7E00EF64017059
:10067800097886E62423F8E6600FEF64024E700ED0
:100688007887E62423F8E67005E4F56CF539AF6D54
:100698007E00EF640170097888E62423F8E6600F8D
:1006A800EF64024E700E7889E62423F8E67005E4BC
:1006B800F56DF53AAF6E7E00EF64017009788AE651
:1006C8002423F8E6600FEF64024E700E788BE62460
:1006D80023F8E67005E4F56EF53BAF6F7E00EF6436
:1006E800017009788CE62423F8E6600FEF64024E67
:1006F800700E788DE62423F8E67005E4F56FF53C76
:10070800AF707E00EF64017009788EE62423F8E666
:10071800600FEF64024E700E788FE62423F8E670BF
:1007280005E4F570F53DAF717E00EF64017009785E
:1007380090E62423F8E6600FEF64024E700E78917D
:10074800E62423F8E67005E4F571F53EAF727E0005
:10075800EF640170097892E62423F8E6600FEF64ED
:10076800024E700E7893E62423F8E67005E4F572DD
:10077800F53FAF737E00EF640170097894E6242397
:10078800F8E6600FEF64024E700E7895E62423F8C1
:10079800E67005E4F573F540AF747E00EF64017010
:1007A800097896E62423F8E6600FEF64024E700E8F
:1007B8007897E62423F8E67005E4F574F541AF75FB
:1007C8007E00EF640170097898E62423F8E6600F4C
:1007D800EF64024E700E7899E62423F8E67005E47B
:1007E800F575F542AF767E00EF64017009789AE6F8
:1007F8002423F8E6600FEF64024E700E789BE6241F
:1008080023F8E67005E4F576F543AF777E00EF64EC
:10081800017009789CE62423F8E6600FEF64024E25
:10082800700E789DE62423F8E67005E4F577F54424
:01083800229D
:100F1C00E5356004D2808002C280E5366004D2815F
:100F2C008002C281E5376004D2828002C282E53839
:100F3C006004D2838002C283E5396004D2848002CB
:100F4C00C284E53A6004D2858002C285E53B600428
:100F5C00D2868002C286E53C6004D2878002C287BA
:100F6C00E5625480C413131354016401700AE53D07
:100F7C006004D2A78002C2A7E5625440C413135484
:100F8C00036401700AE53E6004D2A68002C2A6E5A5
:100F9C00625420C41354076401700AE53F6004D204
:100FAC00A58002C2A5E5625410C4540F6401700AF6
:100FBC00E5406004D2A48002C2A4E5625408131375
:100FCC0013541F6401700AE5416004D2A38002C26D
:100FDC00A3E56254041313543F6401700AE54260A4
:100FEC0004D2A28002C2A2E5625402C3136401704F
:100FFC000AE5436004D2A18002C2A1E562540164F7
:0D100C00017009E5446003D2A022C2A022B9
:1014CA00121112300B09121019120578120F1C2270
:0A1509007EFF0612000001FEF7EF5E
:02137E008F0CD2
:1013800078D07C007D007BFF7A1579097E007F0A8A
:10139000120BAE78D6A60C78D2E6FF18E62FFFE443
:1013A00033FE78D3E67C002FFFEC3EFE08E62FFFED
:1013B000EC3EFE08E62FFFEC3EFE08E62FFFEC3E7B
:1013C000FEC3E49FE49E08F679D1E778D22608268A
:1013D000082608260826FFC3E49F78D8F67B007A03
:0713E00000197D0A0212F65C
:020026008F0C3D
:10002800E5496025E478E3F678E3E6C39413748041
:1000380094804003020571E6FF244AF8E6FE74D076
:100048002FF8A60678E30680DFE53424E1FFE434E0
:1000580020FE1214668F45E53424FE700302021C4C
:100068001470030203C424026003020571E50C2422
:10007800FFFFE434FFFE7C007D09120C3CE42FFFF7
:10008800EE3421FE12146678E0A607E50C24FFFF83
:10009800E434FFFE7C007D09120C3CEF2401FFEEE6
:1000A8003421FE12146678E1A607E50C24FFFFE46C
:1000B80034FFFE7C007D09120C3CEF2402FFEE3475
:1000C80021FE12146678E2A607E408F6087601789D
:1000D800E3E6FFC3940874809480503808E6FE78FD
:1000E800E1568EF08425E0FE78E4E6FD78E0568D52
:1000F800F0842EFE78E4E6FD78E2568DF08475F003
:1001080003A42EFE74D02FF8A60678E30608E62589
:10011800E0F680BBE50C24FFFFE434FFFE7C007DA5
:1001280009120C3CEF2403FFEE3421FE121466780A
:10013800E0A607E50C24FFFFE434FFFE7C007D0900
:10014800120C3CEF2404FFEE3421FE12146678E111
:10015800A607E50C24FFFFE434FFFE7C007D0912AE
:100168000C3CEF2405FFEE3421FE12146678E2A65B
:100178000708760808760178E3E6FFC394107480D0
:100188009480503808E6FE78E1568EF08425E0FE2B
:1001980078E4E6FD78E0568DF0842EFE78E4E6FDFE
:1001A80078E2568DF08475F003A42EFE74D02FF8F3
:1001B800A60678E30608E625E0F680BBE50C24FFF2
:1001C800FFE434FFFE7C007D09120C3CEF2406FF9F
:1001D800EE3421FE12146678E0A607E50C24FFFF32
:1001E800E434FFFE7C007D09120C3CEF2407FFEE8F
:1001F8003421FE12146678E1A607E50C24FFFFE41B
:1002080034FFFE7C007D09120C3CEF2408FFEE341D
:1002180021020569E50C24FFFFE434FFFE7C007D24
:1002280009120C3CEF2455FFEE3427FE12146678B1
:10023800E0A607E50C24FFFFE434FFFE7C007D09FF
:10024800120C3CEF2456FFEE3427FE12146678E1B8
:10025800A607E50C24FFFFE434FFFE7C007D0912AD
:100268000C3CEF2457FFEE3427FE12146678E2A602
:1002780007E408F608760178E3E6FFC3940874807B
:100288009480503808E6FE78E1568EF08425E0FE2A
:1002980078E4E6FD78E0568DF0842EFE78E4E6FDFD
:1002A80078E2568DF08475F003A42EFE74D02FF8F2
:1002B800A60678E30608E625E0F680BBE50C24FFF1
:1002C800FFE434FFFE7C007D09120C3CEF2458FF4C
:1002D800EE3427FE12146678E0A607E50C24FFFF2B
:1002E800E434FFFE7C007D09120C3CEF2459FFEE3C
:1002F8003427FE12146678E1A607E50C24FFFFE414
:1003080034FFFE7C007D09120C3CEF245AFFEE34CA
:1003180027FE12146678E2A60708760808760178A0
:10032800E3E6FFC3941074809480503808E6FE78A2
:10033800E1568EF08425E0FE78E4E6FD78E0568DFF
:10034800F0842EFE78E4E6FD78E2568DF08475F0B0
:1003580003A42EFE74D02FF8A60678E30608E62537
:10036800E0F680BBE50C24FFFFE434FFFE7C007D53
:1003780009120C3CEF245BFFEE3427FE121466785A
:10038800E0A607E50C24FFFFE434FFFE7C007D09AE
:10039800120C3CEF245CFFEE3427FE12146678E161
:1003A800A607E50C24FFFFE434FFFE7C007D09125C
:1003B8000C3CEF245DFFEE3427020569E50C24FFB1
:1003C800FFE434FFFE7C007D09120C3CEF24AAFFF9
:1003D800EE342DFE12146678E0A607E50C24FFFF24
:1003E800E434FFFE7C007D09120C3CEF24ABFFEEE9
:1003F800342DFE12146678E1A607E50C24FFFFE40D
:1004080034FFFE7C007D09120C3CEF24ACFFEE3477
:100418002DFE12146678E2A607E408F6087601783D
:10042800E3E6FFC3940874809480503808E6FE78A9
:10043800E1568EF08425E0FE78E4E6FD78E0568DFE
:10044800F0842EFE78E4E6FD78E2568DF08475F0AF
:1004580003A42EFE74D02FF8A60678E30608E62536
:10046800E0F680BBE50C24FFFFE434FFFE7C007D52
:1004780009120C3CEF24ADFFEE342DFE1214667801
:10048800E0A607E50C24FFFFE434FFFE7C007D09AD
:10049800120C3CEF24AEFFEE342DFE12146678E108
:1004A800A607E50C24FFFFE434FFFE7C007D09125B
:1004B8000C3CEF24AFFFEE342DFE12146678E2A652
:1004C8000708760808760178E3E6FFC3941074807D
:1004D8009480503808E6FE78E1568EF08425E0FED8
:1004E80078E4E6FD78E0568DF0842EFE78E4E6FDAB
:1004F80078E2568DF08475F003A42EFE74D02FF8A0
:10050800A60678E30608E625E0F680BBE50C24FF9E
:10051800FFE434FFFE7C007D09120C3CEF24B0FFA1
:10052800EE342DFE12146678E0A607E50C24FFFFD2
:10053800E434FFFE7C007D09120C3CEF24B1FFEE91
:10054800342DFE12146678E1A607E50C24FFFFE4BB
:1005580034FFFE7C007D09120C3CEF24B2FFEE3420
:0F0568002DFE12146678E2A6077B007A0079D088
:010577002261
:06101900200C030210F19F
:10101F00AF461200268B088A09890AE4F50BC3E54F
:10102F000B9410748094805057AB08AA09A90A85B5
:10103F000B82758300120BEDFF7E0070097435254E
:10104F000BF8E4F68036EF64014E700474358018A7
:10105F00AB08AA09A90A850B82758300120BEDFF55
:10106F007E00640270097468250BF87601800DEF1D
:10107F0064034E70077468250BF87602050B809E8B
:10108F00AB08AA09A90A900010120BEDFFD3940028
:10109F0074809480400312137EAB08AA09A90A90AA
:1010AF000011120BEDFE900012120BED7C002400CC
:1010BF00FFEC3EFEE4FD787A120CC7E4FFFEFDFC68
:1010CF00787A120CBAD3120C9D4014787A120CAEA7
:1010DF00E47BE87A03F9F8120C4E787A120CC7C247
:0110EF000CF4
:1010F00022E4FFFEFDFC787A120CBAC3120C9D703C
:10110000100546D20CE546D395454005754601C20B
:021110000B22B0
:05151F00FD039010A087
:030023000213E7DE
:1013E700C0E0C0D075D000C000C004C006C0073040
:1013F700983AC29878B8E6249FF8A699789FE66449
:10140700FD702578B80678A0E62402FFE433FE785D
:10141700B8E67C00B50715ECB5061178B70678B8BD
:101427007600789F7600800478B87600D007D006DB
:09143700D004D000D0D0D0E03286
:1012690078B976FD78B7E670030212F578BA760197
:1012790078A0E62401FFE433FE78BAE6FDC39FEEC9
:101289006480F8748098500D749F2DF8E678B9261B
:10129900F6080680DB78BAE6249FF918E667702B12
:1012A90008F678A0E614FF78BAE6FEC39F501174D9
:1012B900A12EF8E6FF74BB2EF8A60778BA0680E2DD
:1012C9007B007A0079BB120839801B78BB76FD0850
:1012D90076030876900876FF0876A07B007A007975
:0C12E900BB7D0512144078B71602126D90
:0112F50022D6
:060839008B118A128913E5
:10083F0078197C007D007BFF7A15791F7E007F057C
:10084F00120BAEAB11AA12A913120BD4120CEC0897
:10085F00B001090D10090D11090D12090D13090D24
:10086F0014090D15090D16090D17090D18090D1984
:10087F00090D1A090D1B090D1C090D1D090D1E0966
:10088F000D1F09452009842109D3220A21230A7843
:10089F00300A8E310AA0320AA0350ACA6500000A52
:1008AF00DD7F007E2012149A7F007E2212149A7F21
:1008BF00007E2412149A7F007E2612149A7F007EE7
:1008CF002812149A7F007E2A12149A7F007E2C120F
:1008DF00149A7F007E2E12149AAB11AA12A91390AC
:1008EF000001120BEDFD7F007E20121480AB11AAC8
:1008FF0012A913900002120BEDFD7F01806FAB1157
:10090F00AA12A91374F0120C1A120BD42410FFE4BC
:10091F003420FE900001120BEDFD121480AB11AAD2
:10092F0012A913120BD42420FFE43420FE900002EE
:10093F00120BEDFD8039AB11AA12A9139000011211
:10094F000BEDFD7F307E20121480AB11AA12A9137C
:10095F00900002120BEDFD7F317E20121480AB113F
:10096F00AA12A913900003120BEDFD7F327E201205
:10097F001480020A6DE4F514751513C3E51494136E
:10098F0074809480503BAB11AA12A91390000112EE
:10099F000BED2401FFE433FE7C007D13120C3CC3EE
:1009AF00EF9515FFEE9CCF2400CF3421FE851482E6
:1009BF008C83A3A3120BEDFD121480051415158063
:1009CF00BA020A6DE4F514751513C3E51494137484
:1009DF00809480503BAB11AA12A913900001120B07
:1009EF00ED2401FFE433FE7C007D13120C3CC3EFBA
:1009FF009515FFEE9CCF2400CF3426FE8514828CF4
:100A0F0083A3A3120BEDFD1214800514151580BAE4
:100A1F00804CE4F514751513C3E514941374809486
:100A2F0080503BAB11AA12A913900001120BED24B9
:100A3F0001FFE433FE7C007D13120C3CC3EF9515D0
:100A4F00FFEE9CCF2400CF342BFE8514828C83A322
:100A5F00A3120BEDFD1214800514151580BA7B003F
:100A6F007A0079197D05021440AB11AA12A91390CF
:100A7F000001120BED64017003D20922C20922ABEF
:100A8F0011AA12A913900001120BED6401703F809F
:100A9F003AE4F514C3E514941274809480502F85B2
:100AAF001482758300A3AB11AA12A913120BEDFFC9
:100ABF00744A2514F8A607051480D9AB11AA12A9F8
:0E0ACF0013900001120BED6410700375C72028
:010ADD0022F6
:030000000214E700
:0C14E700787FE4F6D8FD7581E40214F370
:100ADE00E709F608DFFA8046E709F208DFFA803EFA
:100AEE0088828C83E709F0A3DFFA8032E309F608E7
:100AFE00DFFA8078E309F208DFFA807088828C834F
:100B0E00E309F0A3DFFA806489828A83E0A3F60802
:100B1E00DFFA805889828A83E0A3F208DFFA804CDC
:100B2E0080D280FA80C680D4806980F280338010B3
:100B3E0080A680EA809A80A880DA80E280CA80331C
:100B4E0089828A83ECFAE493A3C8C582C8CCC58394
:100B5E00CCF0A3C8C582C8CCC583CCDFE9DEE78064
:100B6E000D89828A83E493A3F608DFF9ECFAA9F0E3
:100B7E00EDFB2289828A83ECFAE0A3C8C582C8CC39
:100B8E00C583CCF0A3C8C582C8CCC583CCDFEADE52
:100B9E00E880DB89828A83E493A3F208DFF980CCB4
:100BAE0088F0EF60010E4E60C388F0ED2402B404AD
:100BBE000050B9F582EB2402B4040050AF23234554
:060BCE008223900B2E7340
:100BD400BB010689828A83E0225002E722BBFE021F
:090BE400E32289828A83E4932252
:100BED00BB010CE58229F582E5833AF583E02250BD
:100BFD0006E92582F8E622BBFE06E92582F8E22207
:0D0C0D00E58229F582E5833AF583E4932220
:100C1A00BB010989828A83F8E028F022500327F76A
:100C2A0022BBFE05F8E328F3228A838982F8E4933B
:020C3A0028226E
:100C3C00EF8DF0A4A8F0CF8CF0A428CE8DF0A42ECC
:020C4C00FE2286
:100C4E00E88FF0A4CC8BF0A42CFCE98EF0A42CFC45
:100C5E008AF0EDA42CFCEA8EF0A4CDA8F08BF0A4C3
:100C6E002DCC3825F0FDE98FF0A42CCD35F0FCEB22
:100C7E008EF0A4FEA9F0EB8FF0A4CFC5F02ECD39E7
:0F0C8E00FEE43CFCEAA42DCE35F0FDE43CFC2254
:100C9D00EB9FF5F0EA9E42F0E99D42F0E89C45F0AD
:010CAD002224
:0C0CAE00E6FC08E6FD08E6FE08E6FF2272
:0D0CBA00E6FB08E6F908E6FA08E6CBF822AA
:0C0CC700ECF608EDF608EEF608EFF62259
:100CD300D083D082E493F608740193F608740293E8
:090CE300F608740393F67404731F
:100CEC00D083D082F8E4937012740193700DA3A397
:100CFC0093F8740193F5828883E4737402936860AB
:060D0C00EFA3A3A380DFAA
:00000001FF
