:0614F70012149602000E23
:0614FD00D20C754601222D
:0B14D7001214F71214FD1214AE80FB7B
:03000B000211B12E
:1011B100C0E0C0F0C083C082C0D075D000C000C004
:1011C10001C002C003C004C005C006C007758CB1D0
:1011D100758AE0C28D055FD3E5649400E5639400F0
:1011E1004008E564156470021563D3E5669400E573
:1011F1006594004008E566156670021565300A0AB7
:101201000561E561700A0560800675600075610021
:10121100300B2D200C2AE4FFFEFDFC787A120CD352
:10122100C3120CB6601A787A120CC7EF24FFFFEED6
:1012310034FFFEED34FFFDEC34FFFC787A120CE054
:10124100D007D006D005D004D003D002D001D00001
:0B125100D0D0D082D083D0F0D0E032AB
:0D14BE00E4F5C7F5C5F5C675C380F5C42279
:10144A0075C78075C5018FC48EC3C2AF75C65A757C
:0A145A00C6A500AFC2D2AF0214BE57
:1014640075C78075C5028FC48EC38DC2C2AF75C6E1
:0A1474005A75C6A500D2AF0214BEDF
:10147E0075C78075C5038FC48EC3C2AF75C65A7546
:08148E00C6A500D2AF0214BE96
:10149600438E805389F0438901758AE0758CB1C209
:0814A6008DD28CD2A9D2AF2235
:10000E00438780759850438E04759CF3438E01434D
:03001E008E10221F
:0A14E20000007F037E69DEFEDFFCE0
:0114EC0022DD
:08125C008B0D8A0E890F8D1025
:08126400E4FDEDC39510507785
:10126C00C2AFAB0DAA0EA90F8D82758300120C06AE
:10127C00FF139200EFA2E19201A2E29202A2E3928A
:10128C0003A2E49204A2E59205A2E6920633920729
:10129C00C2B51214E2A20092B51214E2A20192B5E8
:1012AC001214E2A20292B51214E2A20392B5121425
:1012BC00E2A20492B51214E2A20592B51214E2A2B3
:1012CC000692B51214E2A20792B51214E2D2B5122C
:0412DC0014E2D2AF97
:0312E0000D8083FB
:0112E30022E8
:061424008B168A178918DF
:10142A00E4FFEFC39D5018AB16AA17A9188F82754F
:0F143A008300120C06F599C2993099FD0F80E3DB
:011449002280
:080003008F99C2993099FD228A
:1011050020B60830B705753402800E30B60820B712
:10111500057534038003753401E53465226016E5F1
:10112500226012D20AC3E56194C8E56094004008C4
:1011350075C720800385342220B236756500756633
:1011450064E5664565602A30B207E4F565F56680B5
:10115500F0C3E5669405E565940050E520B2E2E547
:1011650045B54609787A120CEC00000000D20B80D8
:10117500D020B337200B34E5497030F5637564C86A
:10118500E5644563602530B307E4F563F56480F0F5
:10119500D3E5649405E563940050E520B3E2200BA4
:0C11A500DFE54970DBD20BF55F80D5223E
:100D05007594FFE4F593F5927591FFF596F595F5D4
:100D1500B2F5B1D20C7546017F017E2012144A8FBF
:100D250062E56230E007C2A74396018005D2A7437A
:100D35009501E56230E007C2A64396028005D2A67A
:100D4500439502E56230E007C2A54396048005D2CB
:100D5500A5439504E56230E007C2A44396088005E3
:100D6500D2A4439508E56230E007C2A343961080FC
:100D750005D2A3439510E56230E007C2A243962051
:100D85008005D2A2439520E56230E007C2A14396D3
:100D9500408005D2A1439540E56230E007C2A043FB
:100DA50096808005D2A04395807F027E2012144A4A
:100DB500787EA6077F127E2012144A787FA6077FC9
:100DC500037E2012144A7880A6077F137E20121412
:100DD5004A7881A6077F047E2012144A7882A607E6
:100DE5007F147E2012144A7883A6077F057E201281
:100DF500144A7884A6077F157E2012144A7885A6A2
:100E0500077F067E2012144A7886A6077F167E2065
:100E150012144A7887A6077F077E2012144A78881D
:100E2500A6077F177E2012144A7889A6077F087EB9
:100E35002012144A788AA6077F187E2012144A7851
:100E45008BA6077F097E2012144A788CA6077F1986
:100E55007E2012144A788DA6077F0A7E2012144A36
:100E6500788EA6077F1A7E2012144A788FA6077FF0
:100E75000B7E2012144A7890A6077F1B7E20121441
:100E85004A7891A6077F0C7E2012144A7892A6070D
:100E95007F1C7E2012144A7893A6077F0D7E2012B0
:100EA500144A7894A6077F1D7E2012144A7895A6C9
:100EB500077F0E7E2012144A7896A6077F1E7E2095
:100EC50012144A7897A6077F0F7E2012144A789845
:100ED500A6077F1F7E2012144A7899A6077F107EE9
:100EE5002012144A789AA6077420FFFE12144A7835
:100EF5009BA6077F117E2012144A789CA6077F21A6
:0A0F05007E2012144A789DA60722F0
:10057800A290E433F524A291E433F525A292E43362
:10058800F526A293E433F527A294E433F528A2953F
:10059800E433F529A296E433F52AA297E433F52B40
:1005A800A2A7E433F52CA2A6E433F52DA2A5E433E3
:1005B800F52EA2A4E433F52FA2A3E433F530A2A2CA
:1005C800E433F531A2A1E433F532A2A0E433F533E4
:1005D800AF687E00EF64017009787EE62423F8E6B0
:1005E800600FEF64024E700E787FE62423F8E67001
:1005F80005E4F568F535AF697E00EF6401700978A8
:1006080080E62423F8E6600FEF64024E700E7881CE
:10061800E62423F8E67005E4F569F536AF6A7E004E
:10062800EF640170097882E62423F8E6600FEF642E
:10063800024E700E7883E62423F8E67005E4F56A26
:10064800F537AF6B7E00EF640170097884E62423E8
:10065800F8E6600FEF64024E700E7885E62423F802
:10066800E67005E4F56BF538AF6C7E00EF64017059
:10067800097886E62423F8E6600FEF64024E700ED0
:100688007887E62423F8E67005E4F56CF539AF6D54
:100698007E00EF640170097888E62423F8E6600F8D
:1006A800EF64024E700E7889E62423F8E67005E4BC
:1006B800F56DF53AAF6E7E00EF64017009788AE651
:1006C8002423F8E6600FEF64024E700E788BE62460
:1006D80023F8E67005E4F56EF53BAF6F7E00EF6436
:1006E800017009788CE62423F8E6600FEF64024E67
:1006F800700E788DE62423F8E67005E4F56FF53C76
:10070800AF707E00EF64017009788EE62423F8E666
:10071800600FEF64024E700E788FE62423F8E670BF
:1007280005E4F570F53DAF717E00EF64017009785E
:1007380090E62423F8E6600FEF64024E700E78917D
:10074800E62423F8E67005E4F571F53EAF727E0005
:10075800EF640170097892E62423F8E6600FEF64ED
:10076800024E700E7893E62423F8E67005E4F572DD
:10077800F53FAF737E00EF640170097894E6242397
:10078800F8E6600FEF64024E700E7895E62423F8C1
:10079800E67005E4F573F540AF747E00EF64017010
:1007A800097896E62423F8E6600FEF64024E700E8F
:1007B8007897E62423F8E67005E4F574F541AF75FB
:1007C8007E00EF640170097898E62423F8E6600F4C
:1007D800EF64024E700E7899E62423F8E67005E47B
:1007E800F575F542AF767E00EF64017009789AE6F8
:1007F8002423F8E6600FEF64024E700E789BE6241F
:1008080023F8E67005E4F576F543AF777E00EF64EC
:10081800017009789CE62423F8E6600FEF64024E25
:10082800700E789DE62423F8E67005E4F577F54424
:01083800229D
:100F0F00E5356004D2808002C280E5366004D2816C
:100F1F008002C281E5376004D2828002C282E53846
:100F2F006004D2838002C283E5396004D2848002D8
:100F3F00C284E53A6004D2858002C285E53B600435
:100F4F00D2868002C286E53C6004D2878002C287C7
:100F5F00E5625480C413131354016401700AE53D14
:100F6F006004D2A78002C2A7E5625440C413135491
:100F7F00036401700AE53E6004D2A68002C2A6E5B2
:100F8F00625420C41354076401700AE53F6004D211
:100F9F00A58002C2A5E5625410C4540F6401700A03
:100FAF00E5406004D2A48002C2A4E5625408131382
:100FBF0013541F6401700AE5416004D2A38002C27A
:100FCF00A3E56254041313543F6401700AE54260B1
:100FDF0004D2A28002C2A2E5625402C3136401705C
:100FEF000AE5436004D2A18002C2A1E56254016404
:0D0FFF00017009E5446003D2A022C2A022C7
:1014AE00121105300B0912100C120578120F0F22B3
:0A14ED007EFF0612000001FEF7EF7B
:021362008F0CEE
:1013640078D07C007D007BFF7A1479ED7E007F0AC3
:10137400120BC778D6A60C78D2E6FF18E62FFFE446
:1013840033FE78D3E67C002FFFEC3EFE08E62FFF09
:10139400EC3EFE08E62FFFEC3EFE08E62FFFEC3E97
:1013A400FEC3E49FE49E08F679D1E778D2260826A6
:1013B400082608260826FFC3E49F78D8F67B007A1F
:0713C40000197D0A02125C12
:020026008F0C3D
:10002800E5496025E478E3F678E3E6C39413748041
:1000380094804003020571E6FF244AF8E6FE74D076
:100048002FF8A60678E30680DFE53424E1FFE434E0
:1000580020FE12144A8F45E53424FE700302021C68
:100068001470030203C424026003020571E50C2422
:10007800FFFFE434FFFE7C007D09120C55E42FFFDE
:10008800EE3421FE12144A78E0A607E50C24FFFF9F
:10009800E434FFFE7C007D09120C55EF2401FFEECD
:1000A8003421FE12144A78E1A607E50C24FFFFE488
:1000B80034FFFE7C007D09120C55EF2402FFEE345C
:1000C80021FE12144A78E2A607E408F608760178B9
:1000D800E3E6FFC3940874809480503808E6FE78FD
:1000E800E1568EF08425E0FE78E4E6FD78E0568D52
:1000F800F0842EFE78E4E6FD78E2568DF08475F003
:1001080003A42EFE74D02FF8A60678E30608E62589
:10011800E0F680BBE50C24FFFFE434FFFE7C007DA5
:1001280009120C55EF2403FFEE3421FE12144A780D
:10013800E0A607E50C24FFFFE434FFFE7C007D0900
:10014800120C55EF2404FFEE3421FE12144A78E114
:10015800A607E50C24FFFFE434FFFE7C007D0912AE
:100168000C55EF2405FFEE3421FE12144A78E2A65E
:100178000708760808760178E3E6FFC394107480D0
:100188009480503808E6FE78E1568EF08425E0FE2B
:1001980078E4E6FD78E0568DF0842EFE78E4E6FDFE
:1001A80078E2568DF08475F003A42EFE74D02FF8F3
:1001B800A60678E30608E625E0F680BBE50C24FFF2
:1001C800FFE434FFFE7C007D09120C55EF2406FF86
:1001D800EE3421FE12144A78E0A607E50C24FFFF4E
:1001E800E434FFFE7C007D09120C55EF2407FFEE76
:1001F8003421FE12144A78E1A607E50C24FFFFE437
:1002080034FFFE7C007D09120C55EF2408FFEE3404
:1002180021020569E50C24FFFFE434FFFE7C007D24
:1002280009120C55EF2455FFEE3427FE12144A78B4
:10023800E0A607E50C24FFFFE434FFFE7C007D09FF
:10024800120C55EF2456FFEE3427FE12144A78E1BB
:10025800A607E50C24FFFFE434FFFE7C007D0912AD
:100268000C55EF2457FFEE3427FE12144A78E2A605
:1002780007E408F608760178E3E6FFC3940874807B
:100288009480503808E6FE78E1568EF08425E0FE2A
:1002980078E4E6FD78E0568DF0842EFE78E4E6FDFD
:1002A80078E2568DF08475F003A42EFE74D02FF8F2
:1002B800A60678E30608E625E0F680BBE50C24FFF1
:1002C800FFE434FFFE7C007D09120C55EF2458FF33
:1002D800EE3427FE12144A78E0A607E50C24FFFF47
:1002E800E434FFFE7C007D09120C55EF2459FFEE23
:1002F8003427FE12144A78E1A607E50C24FFFFE430
:1003080034FFFE7C007D09120C55EF245AFFEE34B1
:1003180027FE12144A78E2A60708760808760178BC
:10032800E3E6FFC3941074809480503808E6FE78A2
:10033800E1568EF08425E0FE78E4E6FD78E0568DFF
:10034800F0842EFE78E4E6FD78E2568DF08475F0B0
:1003580003A42EFE74D02FF8A60678E30608E62537
:10036800E0F680BBE50C24FFFFE434FFFE7C007D53
:1003780009120C55EF245BFFEE3427FE12144A785D
:10038800E0A607E50C24FFFFE434FFFE7C007D09AE
:10039800120C55EF245CFFEE3427FE12144A78E164
:1003A800A607E50C24FFFFE434FFFE7C007D09125C
:1003B8000C55EF245DFFEE3427020569E50C24FF98
:1003C800FFE434FFFE7C007D09120C55EF24AAFFE0
:1003D800EE342DFE12144A78E0A607E50C24FFFF40
:1003E800E434FFFE7C007D09120C55EF24ABFFEED0
:1003F800342DFE12144A78E1A607E50C24FFFFE429
:1004080034FFFE7C007D09120C55EF24ACFFEE345E
:100418002DFE12144A78E2A607E408F60876017859
:10042800E3E6FFC3940874809480503808E6FE78A9
:10043800E1568EF08425E0FE78E4E6FD78E0568DFE
:10044800F0842EFE78E4E6FD78E2568DF08475F0AF
:1004580003A42EFE74D02FF8A60678E30608E62536
:10046800E0F680BBE50C24FFFFE434FFFE7C007D52
:1004780009120C55EF24ADFFEE342DFE12144A7804
:10048800E0A607E50C24FFFFE434FFFE7C007D09AD
:10049800120C55EF24AEFFEE342DFE12144A78E10B
:1004A800A607E50C24FFFFE434FFFE7C007D09125B
:1004B8000C55EF24AFFFEE342DFE12144A78E2A655
:1004C8000708760808760178E3E6FFC3941074807D
:1004D8009480503808E6FE78E1568EF08425E0FED8
:1004E80078E4E6FD78E0568DF0842EFE78E4E6FDAB
:1004F80078E2568DF08475F003A42EFE74D02FF8A0
:10050800A60678E30608E625E0F680BBE50C24FF9E
:10051800FFE434FFFE7C007D09120C55EF24B0FF88
:10052800EE342DFE12144A78E0A607E50C24FFFFEE
:10053800E434FFFE7C007D09120C55EF24B1FFEE78
:10054800342DFE12144A78E1A607E50C24FFFFE4D7
:1005580034FFFE7C007D09120C55EF24B2FFEE3407
:0F0568002DFE12144A78E2A6077B007A0079D0A4
:010577002261
:06100C00200C030210E4B9
:10101200AF461200268B088A09890AE4F50BC3E55C
:101022000B9410748094805057AB08AA09A90A85C2
:101032000B82758300120C06FF7E00700974352541
:101042000BF8E4F68036EF64014E700474358018B4
:10105200AB08AA09A90A850B82758300120C06FF48
:101062007E00640270097468250BF87601800DEF2A
:1010720064034E70077468250BF87602050B809E98
:10108200AB08AA09A90A900010120C06FFD394001B
:10109200748094804003121362AB08AA09A90A90D3
:1010A2000011120C06FE900012120C067C002400A5
:1010B200FFEC3EFEE4FD787A120CE0E4FFFEFDFC5C
:1010C200787A120CD3D3120CB64014787A120CC769
:1010D200E47BE87A03F9F8120C67787A120CE0C222
:0110E2000C01
:1010E30022E4FFFEFDFC787A120CD3C3120CB67017
:1010F300100546D20CE546D395454005754601C219
:021103000B22BD
:05150300FD039010A0A3
:030023000213CBFA
:1013CB00C0E0C0D075D000C000C004C006C007305C
:1013DB00983AC29878B8E6249FF8A699789FE66465
:1013EB00FD702578B80678A0E62402FFE433FE787A
:1013FB00B8E67C00B50715ECB5061178B70678B8DA
:10140B007600789F7600800478B87600D007D006F7
:09141B00D004D000D0D0D0E032A2
:1012E40078B976FD78B7E6607478BA760178A0E6C6
:1012F4002401FFE433FE78BAE6FDC39FEE6480F870
:10130400748098500D749F2DF8E678B926F6080677
:1013140080DB78BAE6249FF918E667702008F6782F
:10132400A0E614FF78BAE6FEC39F502C74A12EF8F1
:10133400E6FF74BB2EF8A60778BA0680E278BB767F
:10134400FD0876030876900876FF0876A07B007A7D
:0D1354000079BB7D0512142478B716808740
:011361002269
:060839008B118A128913E5
:10083F0078197C007D007BFF7A1579037E007F0598
:10084F00120BC7AB11AA12A913120BED6401705D45
:10085F00FF7E2012147E7F007E2212147E7F007E88
:10086F002412147E7F007E2612147E7F007E2812B3
:10087F00147E7F007E2A12147E7F007E2C12147E3F
:10088F007F007E2E12147EAB11AA12A913900001C5
:10089F00120C06FD7F007E20121464AB11AA12A960
:1008AF0013900002120C06FD7F0102094BAB11AA37
:1008BF0012A913120BEDFF7E00C394107480948065
:1008CF00403CD3EF941F74809480503274F0120C1C
:1008DF0033120BED2410FFEE3420FE900001120CAA
:1008EF0006FD121464AB11AA12A913120BED2420EA
:1008FF00FFE43420FE900002120C06FD8040AB1185
:10090F00AA12A913120BED64207039900001120C7A
:10091F0006FD7F307E20121464AB11AA12A913902A
:10092F000002120C06FD7F317E20121464AB11AA57
:10093F0012A913900003120C06FD7F327E201214B1
:10094F0064020A60AB11AA12A913120BED64217095
:01095F004E49
:10096000F514751513C3E514941374809480503BEB
:10097000AB11AA12A913900001120C062401FFE486
:1009800033FE7C007D13120C55C3EF9515FFEE9CD2
:10099000CF2400CF3421FE8514828C83A3A3120CB4
:0B09A00006FD1214640514151580BA42
:1009AB00020A60AB11AA12A913120BED6422704D4F
:1009BB00F514751513C3E514941374809480503B90
:1009CB00AB11AA12A913900001120C062401FFE42B
:1009DB0033FE7C007D13120C55C3EF9515FFEE9C77
:1009EB00CF2400CF3426FE8514828C83A3A3120C54
:0B09FB0006FD1214640514151580BAE7
:0F0A06008058AB11AA12A913120BED642370567E
:100A1500F514751513C3E514941374809480503B35
:100A2500AB11AA12A913900001120C062401FFE4D0
:100A350033FE7C007D13120C55C3EF9515FFEE9C1C
:100A4500CF2400CF342BFE8514828C83A3A3120CF4
:100A550006FD1214640514151580BA7B007A007919
:060A6500197D05021424B6
:100A6B00AB11AA12A913120BEDFF7E0064307010AC
:100A7B00900001120C0664017003D20922C20922F4
:100A8B00EF64314E700E900001120C066401705B26
:100A9B0075C72022120BEDFF64326005EF643570D1
:010AAB002A20
:100AAC00E4F514C3E514941274809480503C8514BE
:100ABC0082758300A3AB11AA12A913120C06FF7442
:0A0ACC004A2514F8A607051480D986
:100AD600AB11AA12A913120BEDFF64336012EF6477
:100AE60065700D900001120C066410700375C72026
:010AF60022DD
:030000000214CB1C
:0C14CB00787FE4F6D8FD7581E40214D7A8
:100AF700E709F608DFFA8046E709F208DFFA803EE1
:100B070088828C83E709F0A3DFFA8032E309F608CD
:100B1700DFFA8078E309F208DFFA807088828C8335
:100B2700E309F0A3DFFA806489828A83E0A3F608E9
:100B3700DFFA805889828A83E0A3F208DFFA804CC3
:100B470080D280FA80C680D4806980F2803380109A
:100B570080A680EA809A80A880DA80E280CA803303
:100B670089828A83ECFAE493A3C8C582C8CCC5837B
:100B7700CCF0A3C8C582C8CCC583CCDFE9DEE7804B
:100B87000D89828A83E493A3F608DFF9ECFAA9F0CA
:100B9700EDFB2289828A83ECFAE0A3C8C582C8CC20
:100BA700C583CCF0A3C8C582C8CCC583CCDFEADE39
:100BB700E880DB89828A83E493A3F208DFF980CC9B
:100BC70088F0EF60010E4E60C388F0ED2402B40494
:100BD7000050B9F582EB2402B4040050AF2323453B
:060BE7008223900B47730E
:100BED00BB010689828A83E0225002E722BBFE0206
:090BFD00E32289828A83E4932239
:100C0600BB010CE58229F582E5833AF583E02250A3
:100C160006E92582F8E622BBFE06E92582F8E222ED
:0D0C2600E58229F582E5833AF583E4932207
:100C3300BB010989828A83F8E028F022500327F751
:100C430022BBFE05F8E328F3228A838982F8E49322
:020C5300282255
:100C5500EF8DF0A4A8F0CF8CF0A428CE8DF0A42EB3
:020C6500FE226D
:100C6700E88FF0A4CC8BF0A42CFCE98EF0A42CFC2C
:100C77008AF0EDA42CFCEA8EF0A4CDA8F08BF0A4AA
:100C87002DCC3825F0FDE98FF0A42CCD35F0FCEB09
:100C97008EF0A4FEA9F0EB8FF0A4CFC5F02ECD39CE
:0F0CA700FEE43CFCEAA42DCE35F0FDE43CFC223B
:100CB600EB9FF5F0EA9E42F0E99D42F0E89C45F094
:010CC600220B
:0C0CC700E6FC08E6FD08E6FE08E6FF2259
:0D0CD300E6FB08E6F908E6FA08E6CBF82291
:0C0CE000ECF608EDF608EEF608EFF62240
:100CEC00D083D082E493F608740193F608740293CF
:090CFC00F608740393F674047306
:00000001FF
