:06157D0012151C02000E15
:06158300D20C75460122A6
:0B155D0012157D12158312153480FB5F
:03000B00021228B6
:10122800C0E0C0F0C083C082C0D075D000C000C08C
:1012380001C002C003C004C005C006C007758CB158
:10124800758AE0C28D055FD3E5649400E563940078
:101258004008E564156470021563D3E5669400E5FB
:101268006594004008E566156670021565300A0A3F
:101278000561E561700A05608006756000756100AA
:10128800300B2D200C2AE4FFFEFDFC787A120D4A63
:10129800C3120D2D601A787A120D3EEF24FFFFEE6F
:1012A80034FFFEED34FFFDEC34FFFC787A120D5765
:1012B800D007D006D005D004D003D002D001D0008A
:0B12C800D0D0D082D083D0F0D0E03234
:0D154400E4F5C7F5C5F5C675C380F5C422F2
:1014D00075C78075C5018FC48EC3C2AF75C65A75F6
:0A14E000C6A500AFC2D2AF0215444A
:1014EA0075C78075C5028FC48EC38DC2C2AF75C65B
:0A14FA005A75C6A500D2AF021544D2
:1015040075C78075C5038FC48EC3C2AF75C65A75BF
:08151400C6A500D2AF02154488
:10151C00438E805389F0438901758AE0758CB1C282
:08152C008DD28CD2A9D2AF22AE
:10000E00438780759850438E04759CF3438E01434D
:03001E008E10221F
:0A15680000007F037E69DEFEDFFC59
:011572002256
:081360008B0D8A0E890F8D1020
:08136800E4FDEDC39510507780
:10137000C2AFAB0DAA0EA90F8D82758300120C7D32
:10138000FF139200EFA2E19201A2E29202A2E39285
:1013900003A2E49204A2E59205A2E6920633920724
:1013A000C2B5121568A20092B5121568A20192B5D5
:1013B000121568A20292B5121568A20392B5121511
:1013C00068A20492B5121568A20592B5121568A21A
:1013D0000692B5121568A20792B5121568D2B51219
:0413E0001568D2AF0B
:0313E4000D8083F6
:0113E70022E3
:0614AA008B168A17891859
:1014B000E4FFEFC39D5018AB16AA17A9188F8275C9
:0F14C0008300120C7DF599C2993099FD0F80E3DE
:0114CF0022FA
:080003008F99C2993099FD228A
:10117C0020B60830B705753402800E30B60820B79B
:10118C00057534038003753401E53465226016E57A
:10119C00226012D20AC3E56194C8E560940040084D
:1011AC0075C720800385342220B2367565007566BC
:1011BC0064E5664565602A30B207E4F565F566803E
:1011CC00F0C3E5669405E565940050E520B2E2E5D0
:1011DC0045B54609787A120D6300000000D20B80E9
:1011EC00D020B337200B34E5497030F5637564C8F3
:1011FC00E5644563602530B307E4F563F56480F07E
:10120C00D3E5649405E563940050E520B3E2200B2C
:0C121C00DFE54970DBD20BF55F80D522C6
:100D7C007594FFE4F593F5927591FFF596F595F55D
:100D8C00B2F5B1D20C7546017F017E201214D08FC2
:100D9C0062E56230E007C2A74396018005D2A74303
:100DAC009501E56230E007C2A64396028005D2A603
:100DBC00439502E56230E007C2A54396048005D254
:100DCC00A5439504E56230E007C2A443960880056C
:100DDC00D2A4439508E56230E007C2A34396108085
:100DEC0005D2A3439510E56230E007C2A2439620DA
:100DFC008005D2A2439520E56230E007C2A143965C
:100E0C00408005D2A1439540E56230E007C2A04383
:100E1C0096808005D2A04395807F027E201214D04C
:100E2C00787EA6077F127E201214D0787FA6077FCB
:100E3C00037E201214D07880A6077F137E20121414
:100E4C00D07881A6077F047E201214D07882A60762
:100E5C007F147E201214D07883A6077F057E201283
:100E6C0014D07884A6077F157E201214D07885A61E
:100E7C00077F067E201214D07886A6077F167E2068
:100E8C001214D07887A6077F077E201214D078889A
:100E9C00A6077F177E201214D07889A6077F087EBC
:100EAC00201214D0788AA6077F187E201214D078CE
:100EBC008BA6077F097E201214D0788CA6077F1989
:100ECC007E201214D0788DA6077F0A7E201214D0B3
:100EDC00788EA6077F1A7E201214D0788FA6077FF3
:100EEC000B7E201214D07890A6077F1B7E20121444
:100EFC00D07891A6077F0C7E201214D07892A6078A
:100F0C007F1C7E201214D07893A6077F0D7E2012B2
:100F1C0014D07894A6077F1D7E201214D07895A645
:100F2C00077F0E7E201214D07896A6077F1E7E2097
:100F3C001214D07897A6077F0F7E201214D07898C1
:100F4C00A6077F1F7E201214D07899A6077F107EEB
:100F5C00201214D0789AA6077420FFFE1214D078B1
:100F6C009BA6077F117E201214D0789CA6077F21A8
:0A0F7C007E201214D0789DA60722F3
:1008AD00A290E433F524A291E433F525A292E4332A
:1008BD00F526A293E433F527A294E433F528A29507
:1008CD00E433F529A296E433F52AA297E433F52B08
:1008DD00A2A7E433F52CA2A6E433F52DA2A5E433AB
:1008ED00F52EA2A4E433F52FA2A3E433F530A2A292
:1008FD00E433F531A2A1E433F532A2A0E433F533AC
:10090D00AF687E00EF64017009787EE62423F8E677
:10091D00600FEF64024E700E787FE62423F8E670C8
:10092D0005E4F568F535AF697E00EF64017009786F
:10093D0080E62423F8E6600FEF64024E700E788196
:10094D00E62423F8E67005E4F569F536AF6A7E0016
:10095D00EF640170097882E62423F8E6600FEF64F6
:10096D00024E700E7883E62423F8E67005E4F56AEE
:10097D00F537AF6B7E00EF640170097884E62423B0
:10098D00F8E6600FEF64024E700E7885E62423F8CA
:10099D00E67005E4F56BF538AF6C7E00EF64017021
:1009AD00097886E62423F8E6600FEF64024E700E98
:1009BD007887E62423F8E67005E4F56CF539AF6D1C
:1009CD007E00EF640170097888E62423F8E6600F55
:1009DD00EF64024E700E7889E62423F8E67005E484
:1009ED00F56DF53AAF6E7E00EF64017009788AE619
:1009FD002423F8E6600FEF64024E700E788BE62428
:100A0D0023F8E67005E4F56EF53BAF6F7E00EF64FD
:100A1D00017009788CE62423F8E6600FEF64024E2E
:100A2D00700E788DE62423F8E67005E4F56FF53C3D
:100A3D00AF707E00EF64017009788EE62423F8E62E
:100A4D00600FEF64024E700E788FE62423F8E67087
:100A5D0005E4F570F53DAF717E00EF640170097826
:100A6D0090E62423F8E6600FEF64024E700E789145
:100A7D00E62423F8E67005E4F571F53EAF727E00CD
:100A8D00EF640170097892E62423F8E6600FEF64B5
:100A9D00024E700E7893E62423F8E67005E4F572A5
:100AAD00F53FAF737E00EF640170097894E624235F
:100ABD00F8E6600FEF64024E700E7895E62423F889
:100ACD00E67005E4F573F540AF747E00EF640170D8
:100ADD00097896E62423F8E6600FEF64024E700E57
:100AED007897E62423F8E67005E4F574F541AF75C3
:100AFD007E00EF640170097898E62423F8E6600F14
:100B0D00EF64024E700E7899E62423F8E67005E442
:100B1D00F575F542AF767E00EF64017009789AE6BF
:100B2D002423F8E6600FEF64024E700E789BE624E6
:100B3D0023F8E67005E4F576F543AF777E00EF64B4
:100B4D00017009789CE62423F8E6600FEF64024EED
:100B5D00700E789DE62423F8E67005E4F577F544EC
:010B6D002265
:100F8600E5356004D2808002C280E5366004D281F5
:100F96008002C281E5376004D2828002C282E538CF
:100FA6006004D2838002C283E5396004D284800261
:100FB600C284E53A6004D2858002C285E53B6004BE
:100FC600D2868002C286E53C6004D2878002C28750
:100FD600E5625480C413131354016401700AE53D9D
:100FE6006004D2A78002C2A7E5625440C41313541A
:100FF600036401700AE53E6004D2A68002C2A6E53B
:10100600625420C41354076401700AE53F6004D299
:10101600A58002C2A5E5625410C4540F6401700A8B
:10102600E5406004D2A48002C2A4E562540813130A
:1010360013541F6401700AE5416004D2A38002C202
:10104600A3E56254041313543F6401700AE5426039
:1010560004D2A28002C2A2E5625402C313640170E4
:101066000AE5436004D2A18002C2A1E5625401648C
:0D107600017009E5446003D2A022C2A0224F
:1015340012117C300B091210831208AD120F86228F
:0A1573007EFF0612000001FEF7EFF4
:0213E8008F0C68
:1013EA0078D07C007D007BFF7A1579737E007F0AB6
:1013FA00120C3E78D6A60C78D2E6FF18E62FFFE448
:10140A0033FE78D3E67C002FFFEC3EFE08E62FFF82
:10141A00EC3EFE08E62FFFEC3EFE08E62FFFEC3E10
:10142A00FEC3E49FE49E08F679D1E778D22608261F
:10143A00082608260826FFC3E49F78D8F67B007A98
:07144A0000197D0A02136086
:020026008F0C3D
:10002800E5496025E478E3F678E3E6C39413748041
:1000380094804003020571E6FF244AF8E6FE74D076
:100048002FF8A60678E30680DFE53424E1FFE434E0
:1000580020FE1214D08F45E53424FE700302021CE2
:100068001470030203C424026003020571E50C2422
:10007800FFFFE434FFFE7C007D09120CCCE42FFF67
:10008800EE3421FE1214D078E0A607E50C24FFFF19
:10009800E434FFFE7C007D09120CCCEF2401FFEE56
:1000A8003421FE1214D078E1A607E50C24FFFFE402
:1000B80034FFFE7C007D09120CCCEF2402FFEE34E5
:1000C80021FE1214D078E2A607E408F60876017833
:1000D800E3E6FFC3940874809480503808E6FE78FD
:1000E800E1568EF08425E0FE78E4E6FD78E0568D52
:1000F800F0842EFE78E4E6FD78E2568DF08475F003
:1001080003A42EFE74D02FF8A60678E30608E62589
:10011800E0F680BBE50C24FFFFE434FFFE7C007DA5
:1001280009120CCCEF2403FFEE3421FE1214D07810
:10013800E0A607E50C24FFFFE434FFFE7C007D0900
:10014800120CCCEF2404FFEE3421FE1214D078E117
:10015800A607E50C24FFFFE434FFFE7C007D0912AE
:100168000CCCEF2405FFEE3421FE1214D078E2A661
:100178000708760808760178E3E6FFC394107480D0
:100188009480503808E6FE78E1568EF08425E0FE2B
:1001980078E4E6FD78E0568DF0842EFE78E4E6FDFE
:1001A80078E2568DF08475F003A42EFE74D02FF8F3
:1001B800A60678E30608E625E0F680BBE50C24FFF2
:1001C800FFE434FFFE7C007D09120CCCEF2406FF0F
:1001D800EE3421FE1214D078E0A607E50C24FFFFC8
:1001E800E434FFFE7C007D09120CCCEF2407FFEEFF
:1001F8003421FE1214D078E1A607E50C24FFFFE4B1
:1002080034FFFE7C007D09120CCCEF2408FFEE348D
:1002180021020569E50C24FFFFE434FFFE7C007D24
:1002280009120CCCEF2455FFEE3427FE1214D078B7
:10023800E0A607E50C24FFFFE434FFFE7C007D09FF
:10024800120CCCEF2456FFEE3427FE1214D078E1BE
:10025800A607E50C24FFFFE434FFFE7C007D0912AD
:100268000CCCEF2457FFEE3427FE1214D078E2A608
:1002780007E408F608760178E3E6FFC3940874807B
:100288009480503808E6FE78E1568EF08425E0FE2A
:1002980078E4E6FD78E0568DF0842EFE78E4E6FDFD
:1002A80078E2568DF08475F003A42EFE74D02FF8F2
:1002B800A60678E30608E625E0F680BBE50C24FFF1
:1002C800FFE434FFFE7C007D09120CCCEF2458FFBC
:1002D800EE3427FE1214D078E0A607E50C24FFFFC1
:1002E800E434FFFE7C007D09120CCCEF2459FFEEAC
:1002F8003427FE1214D078E1A607E50C24FFFFE4AA
:1003080034FFFE7C007D09120CCCEF245AFFEE343A
:1003180027FE1214D078E2A6070876080876017836
:10032800E3E6FFC3941074809480503808E6FE78A2
:10033800E1568EF08425E0FE78E4E6FD78E0568DFF
:10034800F0842EFE78E4E6FD78E2568DF08475F0B0
:1003580003A42EFE74D02FF8A60678E30608E62537
:10036800E0F680BBE50C24FFFFE434FFFE7C007D53
:1003780009120CCCEF245BFFEE3427FE1214D07860
:10038800E0A607E50C24FFFFE434FFFE7C007D09AE
:10039800120CCCEF245CFFEE3427FE1214D078E167
:1003A800A607E50C24FFFFE434FFFE7C007D09125C
:1003B8000CCCEF245DFFEE3427020569E50C24FF21
:1003C800FFE434FFFE7C007D09120CCCEF24AAFF69
:1003D800EE342DFE1214D078E0A607E50C24FFFFBA
:1003E800E434FFFE7C007D09120CCCEF24ABFFEE59
:1003F800342DFE1214D078E1A607E50C24FFFFE4A3
:1004080034FFFE7C007D09120CCCEF24ACFFEE34E7
:100418002DFE1214D078E2A607E408F608760178D3
:10042800E3E6FFC3940874809480503808E6FE78A9
:10043800E1568EF08425E0FE78E4E6FD78E0568DFE
:10044800F0842EFE78E4E6FD78E2568DF08475F0AF
:1004580003A42EFE74D02FF8A60678E30608E62536
:10046800E0F680BBE50C24FFFFE434FFFE7C007D52
:1004780009120CCCEF24ADFFEE342DFE1214D07807
:10048800E0A607E50C24FFFFE434FFFE7C007D09AD
:10049800120CCCEF24AEFFEE342DFE1214D078E10E
:1004A800A607E50C24FFFFE434FFFE7C007D09125B
:1004B8000CCCEF24AFFFEE342DFE1214D078E2A658
:1004C8000708760808760178E3E6FFC3941074807D
:1004D8009480503808E6FE78E1568EF08425E0FED8
:1004E80078E4E6FD78E0568DF0842EFE78E4E6FDAB
:1004F80078E2568DF08475F003A42EFE74D02FF8A0
:10050800A60678E30608E625E0F680BBE50C24FF9E
:10051800FFE434FFFE7C007D09120CCCEF24B0FF11
:10052800EE342DFE1214D078E0A607E50C24FFFF68
:10053800E434FFFE7C007D09120CCCEF24B1FFEE01
:10054800342DFE1214D078E1A607E50C24FFFFE451
:1005580034FFFE7C007D09120CCCEF24B2FFEE3490
:0F0568002DFE1214D078E2A6077B007A0079D01E
:010577002261
:06108300200C0302115BCA
:10108900AF461200268B088A09890AE4F50BC3E5E5
:101099000B9410748094805057AB08AA09A90A854B
:1010A9000B82758300120C7DFF7E00700974352553
:1010B9000BF8E4F68036EF64014E7004743580183D
:1010C900AB08AA09A90A850B82758300120C7DFF5A
:1010D9007E00640270097468250BF87601800DEFB3
:1010E90064034E70077468250BF87602050B809E21
:1010F900AB08AA09A90A900010120C7DFFD394002D
:101109007480948040031213E8AB08AA09A90A90D5
:101119000011120C7DFE900012120C7D7C0024003F
:10112900FFEC3EFEE4FD787A120D57E4FFFEFDFC6C
:10113900787A120D4AD3120D2D4014787A120D3E89
:10114900E47BE87A03F9F8120CDE787A120D57C2BB
:011159000C89
:10115A0022E4FFFEFDFC787A120D4AC3120D2D70AF
:10116A00100546D20CE546D395454005754601C2A1
:02117A000B2246
:05158900FD039010A01D
:0300230002145173
:10145100C0E0C0D075D000C000C004C006C00730D5
:10146100983AC29878B8E6249FF8A699789FE664DE
:10147100FD702578B80678A0E62402FFE433FE78F3
:10148100B8E67C00B50715ECB5061178B70678B853
:101491007600789F7600800478B87600D007D00671
:0914A100D004D000D0D0D0E0321C
:1012D30078B976FD78B7E6700302135F78BA7601C2
:1012E30078A0E62401FFE433FE78BAE6FDC39FEE5F
:1012F3006480F8748098500D749F2DF8E678B926B1
:10130300F6080680DB78BAE6249FF918E667702BA7
:1013130008F678A0E614FF78BAE6FEC39F5011746E
:10132300A12EF8E6FF74BB2EF8A60778BA0680E272
:101333007B007A0079BB120578801B78BB76FD08A9
:1013430076030876900876FF0876A07B007A00790A
:0C135300BB7D051214AA78B7160212D751
:01135F00226B
:060578008B118A128913A9
:10057E0078197C007D007BFF7A1579897E007F05D6
:10058E00120C3EAB11AA12A913120C6414706B7FDD
:10059E00007E201215047F007E221215047F007E3D
:1005AE00241215047F007E261215047F007E281269
:1005BE0015047F007E2A1215047F007E2C1215046E
:1005CE007F007E2E121504AB11AA12A91390000102
:1005DE00120C7DFD7F007E201214EAAB11AA12A927
:1005EE0013900002120C7DFD7F017E201214EA7B17
:1005FE00007A0079197D051214AAAB11AA12A9135B
:10060E00120C646401705DFF7E201215047F007E63
:10061E00221215047F007E241215047F007E2612FE
:10062E0015047F007E281215047F007E2A12150401
:10063E007F007E2C1215047F007E2E121504AB1146
:10064E00AA12A913900001120C7DFD7F007E2012CC
:10065E0014EAAB11AA12A913900002120C7DFD7FB1
:10066E0001020701AB11AA12A913120C64FF7E003E
:10067E00C3941074809480403CD3EF941F74809484
:10068E0080503274F0120CAA120C642410FFEE3457
:10069E0020FE900001120C7DFD1214EAAB11AA127D
:1006AE00A913120C642420FFE43420FE90000212E1
:1006BE000C7DFD8040AB11AA12A913120C646420AC
:1006CE007039900001120C7DFD7F307E201214EAED
:1006DE00AB11AA12A913900002120C7DFD7F317E80
:1006EE00201214EAAB11AA12A913900003120C7D6A
:1006FE00FD7F327E201214EA020816AB11AA12A94F
:08070E0013120C646421704E0B
:10071600F514751513C3E514941374809480503B37
:10072600AB11AA12A913900001120C7D2401FFE45B
:1007360033FE7C007D13120CCCC3EF9515FFEE9CA7
:10074600CF2400CF3421FE8514828C83A3A3120C00
:0B0756007DFD1214EA0514151580BA91
:10076100020816AB11AA12A913120C646422704D6F
:10077100F514751513C3E514941374809480503BDC
:10078100AB11AA12A913900001120C7D2401FFE400
:1007910033FE7C007D13120CCCC3EF9515FFEE9C4C
:1007A100CF2400CF3426FE8514828C83A3A3120CA0
:0B07B1007DFD1214EA0514151580BA36
:0F07BC008058AB11AA12A913120C646423705653
:1007CB00F514751513C3E514941374809480503B82
:1007DB00AB11AA12A913900001120C7D2401FFE4A6
:1007EB0033FE7C007D13120CCCC3EF9515FFEE9CF2
:1007FB00CF2400CF342BFE8514828C83A3A3120C41
:10080B007DFD1214EA0514151580BA7B007A007968
:06081B00197D050214AA7C
:10082100AB11AA12A913120C64FF7E006430701080
:10083100900001120C7D64017003D20922C20922C9
:10084100EF64314E700E900001120C7D6401705BFB
:1008510075C72022120C64FF64326005EF643570A5
:010861002A6C
:10086200E4F514C3E514941274809480503C85140A
:1008720082758300A3AB11AA12A913120C7DFF7417
:0A0882004A2514F8A607051480D9D2
:10088C00AB11AA12A913120C64FF64336012EF644B
:10089C0065700D900001120C7D6410700375C720FB
:0108AC002229
:0300000002155195
:0C155100787FE4F6D8FD7581E402155D9A
:100B6E00E709F608DFFA8046E709F208DFFA803E69
:100B7E0088828C83E709F0A3DFFA8032E309F60856
:100B8E00DFFA8078E309F208DFFA807088828C83BE
:100B9E00E309F0A3DFFA806489828A83E0A3F60872
:100BAE00DFFA805889828A83E0A3F208DFFA804C4C
:100BBE0080D280FA80C680D4806980F28033801023
:100BCE0080A680EA809A80A880DA80E280CA80338C
:100BDE0089828A83ECFAE493A3C8C582C8CCC58304
:100BEE00CCF0A3C8C582C8CCC583CCDFE9DEE780D4
:100BFE000D89828A83E493A3F608DFF9ECFAA9F053
:100C0E00EDFB2289828A83ECFAE0A3C8C582C8CCA8
:100C1E00C583CCF0A3C8C582C8CCC583CCDFEADEC1
:100C2E00E880DB89828A83E493A3F208DFF980CC23
:100C3E0088F0EF60010E4E60C388F0ED2402B4041C
:100C4E000050B9F582EB2402B4040050AF232345C3
:060C5E008223900BBE731F
:100C6400BB010689828A83E0225002E722BBFE028E
:090C7400E32289828A83E49322C1
:100C7D00BB010CE58229F582E5833AF583E022502C
:100C8D0006E92582F8E622BBFE06E92582F8E22276
:0D0C9D00E58229F582E5833AF583E4932290
:100CAA00BB010989828A83F8E028F022500327F7DA
:100CBA0022BBFE05F8E328F3228A838982F8E493AB
:020CCA002822DE
:100CCC00EF8DF0A4A8F0CF8CF0A428CE8DF0A42E3C
:020CDC00FE22F6
:100CDE00E88FF0A4CC8BF0A42CFCE98EF0A42CFCB5
:100CEE008AF0EDA42CFCEA8EF0A4CDA8F08BF0A433
:100CFE002DCC3825F0FDE98FF0A42CCD35F0FCEB92
:100D0E008EF0A4FEA9F0EB8FF0A4CFC5F02ECD3956
:0F0D1E00FEE43CFCEAA42DCE35F0FDE43CFC22C3
:100D2D00EB9FF5F0EA9E42F0E99D42F0E89C45F01C
:010D3D002293
:0C0D3E00E6FC08E6FD08E6FE08E6FF22E1
:0D0D4A00E6FB08E6F908E6FA08E6CBF82219
:0C0D5700ECF608EDF608EEF608EFF622C8
:100D6300D083D082E493F608740193F60874029357
:090D7300F608740393F67404738E
:00000001FF
