:101730007EFF0612000001FEF7EFFD039010A0FDF2
:0417400003710172BE
:0D175600E4F5E7F5E5F5E675E380F5E4223E
:0516DE00FFEE3422FEC6
:1016E30075E78175E5018FE48EE3C2AF75E6467554
:0A16F300E6B900AFE2D2AF021756CD
:0C16B800FE850B828C83A3A3120FC8FDDB
:1016C40075E78175E5028FE48EE38DE2C2AF75E6BE
:0A16D4004675E6B900D2AF021756C2
:1017180075E78175E5038FE48EE3C2AF75E646751C
:08172800E6B900D2AF0217562A
:1016FD007D0AAC051DEC60127EB4AC061EEC60F2EA
:0A170D007F49AC071FEC60F280F882
:0117170022AF
:04176F007F5ADFFEC0
:011773002253
:061448008B0E8A0F8910D3
:07144E00E4FEEEC39D5077A0
:10145500C2AFAB0EAA0FA9108E82758300120FC8FA
:10146500FF139200EFA2E19201A2E29202A2E3929F
:1014750003A2E49204A2E59205A2E692063392073E
:10148500C2B512176FA20092B512176FA20192B5DD
:1014950012176FA20292B512176FA20392B5121717
:1014A5006FA20492B512176FA20592B512176FA21B
:1014B5000692B512176FA20792B512176FD2B51221
:0414C500176FD2AF1C
:0314C9000E80840E
:0114CC0022FD
:10000E0075985075CBFF75CDFF75CAB875CCB875A0
:05001E00C834D2AC2241
:10174400758911758CB8E4F58AC28DD2A9D28CD270
:02175400AF22C2
:1015F60079B4E778B5260826082608260826082698
:1016060008260826082608260826082679C1F77B14
:07161600007A0079B47D0E9B
:06161D008B0F8A108911F9
:10162300E4FFEFC39D5018AB0FAA10A9118F827569
:0F1633008300120FC8F599C2993099FD0F80E31B
:011642002285
:080003008F99C2993099FD228A
:0214CD008F0D81
:1014CF0078B47C007D007BFF7A1779307E007F0A2D
:1014DF00120F8978BAA60D78B6E6FF18E62FFFE44B
:1014EF0033FE78B7E67C002FFFEC3EFE08E62FFFB9
:1014FF00EC3EFE08E62FFFEC3EFE08E62FFFEC3E2B
:10150F00FEC3E49FE49E08F679B5E778B626082671
:10151F00082608260826FFC3E49F78BCF67B007ACE
:07152F0000197D0A021448B7
:02002600AB0726
:10002800E5496025E478C7F678C7E6C39413748079
:10003800948040030204E4E6FF244AF8E6FE74B420
:100048002FF8A60678C70680DFE534242FFFE434AE
:1000580020FE1216E38F45E53424FE70030201D317
:10006800147003020359240260030204E4EB24FF22
:10007800FFE434FFFE7C007D09121017E42F1216EE
:10008800DE78C4A607EB24FFFFE434FFFE12101746
:10009800EF24011216DE78C5A607EB24FFFFE4342F
:1000A800FFFE121017EF24021216DE78C6A607E428
:1000B80008F608760178C7E6FFC394087480948030
:1000C800503808E6FE78C5568EF08425E0FE78C8DC
:1000D800E6FD78C4568DF0842EFE78C8E6FD78C615
:1000E800568DF08475F003A42EFE74B42FF8A6067E
:1000F80078C70608E625E0F680BBEB24FFFFE4346A
:10010800FFFE7C007D09121017EF24031216DE781B
:10011800C4A607EB24FFFFE434FFFE121017EF24F8
:10012800041216DE78C5A607EB24FFFFE434FFFEB1
:10013800121017EF24051216DE78C6A607087608EF
:1001480008760178C7E6FFC394107480948050380D
:1001580008E6FE78C5568EF08425E0FE78C8E6FDF0
:1001680078C4568DF0842EFE78C8E6FD78C6568D84
:10017800F08475F003A42EFE74B42FF8A60678C791
:100188000608E625E0F680BBEB24FFFFE434FFFE1B
:100198007C007D09121017EF24061216DE78C4A61B
:1001A80007EB24FFFFE434FFFE121017EF240712B9
:1001B80016DE78C5A607EB24FFFFE434FFFE121015
:1001C80017EF2408FFEE34220204DCEB24FFFFE4DF
:1001D80034FFFE7C007D09121017E42FFFEE34284F
:1001E800FE1216E378C4A607EB24FFFFE434FFFEF3
:1001F800121017EF2401FFEE3428FE1216E378C51B
:10020800A607EB24FFFFE434FFFE121017EF2402C9
:10021800FFEE3428FE1216E378C6A607E408F608AF
:10022800760178C7E6FFC394087480948050380834
:10023800E6FE78C5568EF08425E0FE78C8E6FD789F
:10024800C4568DF0842EFE78C8E6FD78C6568DF02B
:100258008475F003A42EFE74B42FF8A60678C7069A
:1002680008E625E0F680BBEB24FFFFE434FFFE7CC4
:10027800007D09121017EF2403FFEE3428FE121632
:10028800E378C4A607EB24FFFFE434FFFE1210173F
:10029800EF2404FFEE3428FE1216E378C5A607EB18
:1002A80024FFFFE434FFFE121017EF2405FFEE349D
:1002B80028FE1216E378C6A607087608087601789D
:1002C800C7E6FFC3941074809480503808E6FE781F
:1002D800C5568EF08425E0FE78C8E6FD78C4568DB4
:1002E800F0842EFE78C8E6FD78C6568DF08475F049
:1002F80003A42EFE74B42FF8A60678C70608E625D0
:10030800E0F680BBEB24FFFFE434FFFE7C007D09B0
:10031800121017EF2406FFEE3428FE1216E378C4F5
:10032800A607EB24FFFFE434FFFE121017EF2407A3
:10033800FFEE3428FE1216E378C5A607EB24FFFF6C
:10034800E434FFFE121017EF2408FFEE34280204ED
:10035800DCEB24FFFFE434FFFE7C007D091210175C
:10036800E42FFFEE342EFE1216E378C4A607EB2422
:10037800FFFFE434FFFE121017EF2401FFEE342EC6
:10038800FE1216E378C5A607EB24FFFFE434FFFE50
:10039800121017EF2402FFEE342EFE1216E378C671
:1003A800A607E408F608760178C7E6FFC394087440
:1003B800809480503808E6FE78C5568EF08425E093
:1003C800FE78C8E6FD78C4568DF0842EFE78C8E61F
:1003D800FD78C6568DF08475F003A42EFE74B42FF4
:1003E800F8A60678C70608E625E0F680BBEB24FFEA
:1003F800FFE434FFFE7C007D09121017EF2403FF91
:10040800EE342EFE1216E378C4A607EB24FFFFE4B1
:1004180034FFFE121017EF2404FFEE342EFE1216DE
:10042800E378C5A607EB24FFFFE434FFFE1210179C
:10043800EF2405FFEE342EFE1216E378C6A6070851
:10044800760808760178C7E6FFC394107480948014
:10045800503808E6FE78C5568EF08425E0FE78C848
:10046800E6FD78C4568DF0842EFE78C8E6FD78C681
:10047800568DF08475F003A42EFE74B42FF8A606EA
:1004880078C70608E625E0F680BBEB24FFFFE434D6
:10049800FFFE7C007D09121017EF2406FFEE342EB4
:1004A800FE1216E378C4A607EB24FFFFE434FFFE30
:1004B800121017EF2407FFEE342EFE1216E378C54C
:1004C800A607EB24FFFFE434FFFE121017EF240801
:1004D800FFEE342EFE1216E378C6A6077B007A00DC
:0204E80079B4E5
:0104EA0022EF
:10102900D20E7546017F017E201216E38F61E561BC
:1010390030E004C2A78002D2A7E56130E004C2A66D
:101049008002D2A6E56130E004C2A58002D2A5E5FE
:101059006130E004C2A48002D2A4E56130E004C298
:10106900A38002D2A3E56130E004C2A28002D2A229
:10107900E56130E004C2A18002D2A1E56130E0045B
:10108900C2A08002D2A07F107E201216E37879A632
:10109900077420FF1216E308A6077F111216E3084A
:1010A900A6077F211216E308A6077F121216E30886
:1010B900A6077F221216E308A6077F131216E30874
:1010C900A6077F231216E308A6077F141216E30862
:1010D900A6077F241216E308A6077F151216E30850
:1010E900A6077F251216E308A6077F161216E3083E
:1010F900A6077F261216E308A6077F171216E3082C
:10110900A6077F271216E308A6077F181216E30819
:10111900A6077F281216E308A6077F191216E30807
:10112900A6077F291216E308A6077F1A1216E308F5
:10113900A6077F2A1216E308A6077F1B1216E308E3
:10114900A6077F2B1216E308A6077F1C1216E308D1
:10115900A6077F2C1216E308A6077F1D1216E308BF
:10116900A6077F2D1216E308A6077F1E1216E308AD
:10117900A6077F2E1216E308A6077F1F1216E3089B
:0B118900A6077F2F1216E308A607221E
:1004EB00A290E433F524A291E433F525A292E433F0
:1004FB00F526A293E433F527A294E433F528A295CD
:10050B00E433F529A296E433F52AA297E433F52BCD
:10051B00A2A7E433F52CA2A6E433F52DA2A5E43370
:10052B00F52EA2A4E433F52FA2A3E433F530A2A257
:10053B00E433F531A2A1E433F532A2A0E433F53371
:10054B00AF657E00EF640170097879E62423F8E645
:10055B00600FEF64024E700E787AE62423F8E67093
:10056B0005E4F565F535AF667E00EF64017009783B
:10057B007BE62423F8E6600FEF64024E700E787C66
:10058B00E62423F8E67005E4F566F536AF677E00E2
:10059B00EF64017009787DE62423F8E6600FEF64C1
:1005AB00024E700E787EE62423F8E67005E4F567BC
:1005BB00F537AF687E00EF64017009787FE624237E
:1005CB00F8E6600FEF64024E700E7880E62423F895
:1005DB00E67005E4F568F538AF697E00EF640170ED
:1005EB00097881E62423F8E6600FEF64024E700E63
:1005FB007882E62423F8E67005E4F569F539AF6AED
:10060B007E00EF640170097883E62423F8E6600F1F
:10061B00EF64024E700E7884E62423F8E67005E44E
:10062B00F56AF53AAF6B7E00EF640170097885E6E9
:10063B002423F8E6600FEF64024E700E7886E624F2
:10064B0023F8E67005E4F56BF53BAF6C7E00EF64C9
:10065B000170097887E62423F8E6600FEF64024EF9
:10066B00700E7888E62423F8E67005E4F56CF53C0B
:10067B00AF6D7E00EF640170097889E62423F8E6FC
:10068B00600FEF64024E700E788AE62423F8E67052
:10069B0005E4F56DF53DAF6E7E00EF6401700978F2
:1006AB008BE62423F8E6600FEF64024E700E788C15
:1006BB00E62423F8E67005E4F56EF53EAF6F7E0099
:1006CB00EF64017009788DE62423F8E6600FEF6480
:1006DB00024E700E788EE62423F8E67005E4F56F73
:1006EB00F53FAF707E00EF64017009788FE624232D
:1006FB00F8E6600FEF64024E700E7890E62423F854
:10070B00E67005E4F570F540AF717E00EF640170A3
:10071B00097891E62423F8E6600FEF64024E700E21
:10072B007892E62423F8E67005E4F571F541AF7293
:10073B007E00EF640170097893E62423F8E6600FDE
:10074B00EF64024E700E7894E62423F8E67005E40D
:10075B00F572F542AF737E00EF640170097895E690
:10076B002423F8E6600FEF64024E700E7896E624B1
:10077B0023F8E67005E4F573F543AF747E00EF6480
:10078B000170097897E62423F8E6600FEF64024EB8
:10079B00700E7898E62423F8E67005E4F574F544BA
:1007AB00E5356004D2808002C280E5366004D281D8
:1007BB008002C281E5376004D2828002C282E538B2
:1007CB006004D2838002C283E5396004D284800244
:1007DB00C284E53A6004D2858002C285E53B6004A1
:1007EB00D2868002C286E53C6004D2878002C28733
:1007FB00E5615480C413131354016401700AE53D81
:10080B006004D2A78002C2A7E5615440C4131354FD
:10081B00036401700AE53E6004D2A68002C2A6E51D
:10082B00615420C41354076401700AE53F6004D27D
:10083B00A58002C2A5E5615410C4540F6401700A6F
:10084B00E5406004D2A48002C2A4E56154081313EE
:10085B0013541F6401700AE5416004D2A38002C2E5
:10086B00A3E56154041313543F6401700AE542601D
:10087B0004D2A28002C2A2E5615402C313640170C8
:10088B000AE5436004D2A18002C2A1E56154016470
:0D089B00017009E5446003D2A022C2A02232
:0608A8008B088A09890A91
:1008AE0078CC7C007D007BFF7A17793A7E007F053D
:1008BE00120F89AB08AA09A90A120FAFFC640170C6
:1008CE004DC28CFF7E201217187E221217187E241E
:1008DE001217187E261217187E281217187E2A1243
:1008EE0017187E2C1217187E2E121718AB08AA098D
:1008FE00A90A900001120FC8FD7E201216C4AB0883
:10090E00AA09A90A900002120FC8FD0F8049ECFF38
:10091E007E00C3941074809480404BD3EF941F7468
:10092E008094805041AB08AA09A90A74F0120FF501
:10093E00120FAF2410FFEE3420FE9000011216C0ED
:10094E00AB08AA09A90A120FAF2420FFE43420FE37
:10095E00900002120FC8FD1216C4AB08AA09A90A0C
:10096E00900003020AF0AB08AA09A90A120FAFFC05
:10097E006420703C900001120FC8FD7F307E201263
:10098E0016C4AB08AA09A90A900002120FC8FD0FDF
:10099E001216C4AB08AA09A90A900003120FC8FDCB
:1009AE000F1216C4AB08AA09A90A900004020AF095
:1009BE00EC64217061AB08AA09A90A900001120F1C
:0A09CE00C8C394AA74809480504CB2
:1009D800E4F50B750C09C3E50B94097480948050F9
:1009E8002FAB08AA09A90A900001120FC82401FF19
:1009F800E433FE7C007D09121017C3EF950CFFEE5F
:100A08009CCF2400CF34221216B8050B150C80C6D3
:090A1800AB08AA09A90A90000B21
:100A2100020AF0AB08AA09A90A120FAF6422705A90
:0F0A3100900001120FC8C394AA74809480504B98
:100A4000E4F50B750C09C3E50B9409748094805090
:100A50002FAB08AA09A90A900001120FC82401FFB0
:100A6000E433FE7C007D09121017C3EF950CFFEEF6
:100A70009CCF2400CF34281216B8050B150C80C665
:090A8000AB08AA09A90A90000BB9
:100A89008065AB08AA09A90A120FAF642370749094
:0E0A99000001120FC8C394AA748094805065A7
:100AA700E4F50B750C09C3E50B9409748094805029
:100AB7002FAB08AA09A90A900001120FC82401FF49
:100AC700E433FE7C007D09121017C3EF950CFFEE8F
:100AD7009CCF2400CF342E1216B8050B150C80C6F8
:100AE700AB08AA09A90A90000B120FC8FF78CFF626
:100AF70079CCE778CD2608262F78D0F67B007A00C8
:050B07007D0502161D32
:100B0C00AB08AA09A90A120FAFFF7E00643070105F
:100B1C00900001120FC864017003D20922C209228D
:100B2C00EF64314E7010900001120FC86401600325
:100B3C00020C17020BDA120FAFFF7E006432703713
:100B4C00F50BC3E50B941374809480501C850B82B9
:100B5C00758300A3AB08AA09A90A120FC8FD744A31
:100B6C00250BF8A605050B80D9D20ED20D754501C3
:060B7C00754601754901F8
:070B820022EF64354E7037CD
:100B8900F50BC3E50B941374809480501C850B827C
:100B9900758300A3AB08AA09A90A120FC8FF744AF2
:100BA900250BF8A607050B80D9D20ED20D75450184
:060BB900754601754902BA
:100BBF0022AB08AA09A90A120FAFFF7E0064657065
:100BCF000E900001120FC86410703D75E76022EFA0
:100BDF0064A04E7015900001120FC864017029F5C2
:100BEF0047754801D208755E0122120FAF649070ED
:100BFF0017900001120FC8B55D0E30080B755E011E
:080C0F000548E54870020547A5
:010C170022BA
:1015360078B476FD78B2E6605F78B57601789BE69A
:101546002401FFE433FE78B5E6FDC39FEE6480F820
:10155600748098500D749A2DF8E678B426F608062D
:1015660080DB78B5E6249AF918E667702608F678DF
:10157600B5E6FFC3789B965011749C2FF8E6FE746F
:10158600B62FF8A60678B50680E57B007A0079B610
:081596001208A878B216809C2F
:01159E00222A
:040C18008E088F09AA
:100C1C00E50964014508703178B476FD087603085F
:100C2C0076507F017E201216E308EFF679B4E77850
:100C3C00B52608262F78B8F67B007A007D051216AB
:100C4C001DE4F55E78B8020E74E50964024508707F
:100C5C007878B476FD0876050876647F307E2012AD
:100C6C0016E38F64EF7008756401087601800478D0
:100C7C00B7A6647F317E201216E38F75EF7009756D
:100C8C00750178B87601800478B8A6757F327E201D
:100C9C001216E38F76EF700975760178B9760180BC
:100CAC000478B9A67679B4E778B52608260826081C
:100CBC0026082679BAF77B007A0079B47D071216DC
:100CCC001DE4F55E78BA020E74C3E5099413E508C9
:100CDC009400504C78B476FD087604E509244E084F
:100CEC00F6E509240DFFE5083420FE1216E308A6EC
:100CFC0007E509241DFFE5083420FE1216E308EF72
:100D0C00F679B4E778B526082608262F78B9F67B4D
:100D1C00007A007D0612161DE4F55E78B9020E7499
:100D2C00E5642413FFE433FEC3E5099FE5089E50F8
:010D3C005264
:100D3D0078B476FD08760C087661E50924EE08F6A0
:100D4D00E4F50A750B09C3E50A9409748094805083
:100D5D002678B7E675F009A4C3950BFFE5F094006E
:100D6D00CF2400CF3422FE1216E374B8250AF8A65C
:0F0D7D0007050A150B80CF1215F6E4F55E78C155
:100D8C00020E74E5642413FFE433FE7C00EF25753A
:0D0D9C00FFEC3EFEC3E5099FE5089E5055A3
:100DA90078B476FD08760C087662E50924EEC395D9
:100DB9006408F6E4F50A750B09C3E50A9409748019
:100DC9009480502678B7E675F009A4C3950BFFE522
:100DD900F09400CF2400CF3428FE1216E374B8250E
:100DE9000AF8A607050A150B80CF1215F6E4F55E79
:020DF90078C1BF
:100DFB00020E74E5642413FFE433FE7C00EF2575CB
:100E0B00FFEC3EFEEF2576FFEC3EFEC3E5099FE5CA
:040E1B00089E505984
:100E1F0078B476FD08760C087663E50924EEC39561
:100E2F0064C3957508F6E4F50A750B09C3E50A94D2
:100E3F000974809480502678B7E675F009A4C3959D
:100E4F000BFFE5F09400CF2400CF342EFE1216E3F3
:100E5F0074B8250AF8A607050A150B80CF1215F6E8
:080E6F00E4F55E78C1E6F55DD3
:100E770022E5642413FFE433FE7C00EF2575FFECC5
:100E87003EFEEF2576FFEC3EFEEFB50924EEB508F2
:100E97002078B476FD08760308766508761008761C
:100EA700757B007A0079B47D0512161DE4F55EC2E4
:010EB7000832
:010EB8002217
:06119400200E03021243CD
:10119A00AF461200268B088A09890AE4F50BC3E5D3
:1011AA000B9410748094805057AB08AA09A90A8539
:1011BA000B82758300120FC8FF7E007009743525F3
:1011CA000BF8E4F68036EF64014E7004743580182B
:1011DA00AB08AA09A90A850B82758300120FC8FFFA
:1011EA007E00640270097465250BF87601800DEFA4
:1011FA0064034E70077465250BF87602050B809E12
:10120A00AB08AA09A90A900010120FC8FFD39400CC
:10121A007480948040031214CDAB08AA09A90A90DD
:10122A000011120FC8FE900012120FC87C00240091
:09123A007878F6EC3E18F6C20EBD
:10124300C3E55F940A748094804069E4F55F78781D
:10125300E6184670570546D20EE546D395454054E9
:0E126300754601C20DAF497E00EF64017018A0
:10127100F508C3E508941074809480502D743525C9
:0812810008F8E4F6050880EA14
:06128900EF64024E702824
:10128F0078087C00FD7BFF7A17793FFE7F05120FF0
:0F129F00897B007A0079087D0512161DE4F54958
:0A12AE00227878E616187001162267
:1013B50020B60330B71620B60830B705753402805D
:1013C5000E30B60820B7057534038003753401E582
:1013D5003465226018E5226014D20AC3E56094C81A
:1013E50074809480400CC20A75E7608005853422BC
:1013F500C20A20B221D20CC3E56394647480948040
:101405004016C20C20B211E545B54606E47877F6DC
:1014150008F6D20D8002C20C20B325200D22AF495B
:10142500EF701DD20BC3E56294C87480948040129E
:10143500C20B20B30D200D0AEF7007D20DF55F2208
:03144500C20C22B4
:1012B8007508FD750905750A70A281E43375F0405B
:1012C800A4FFA280E43375F080A44FFFA282E43328
:1012D800C43354E04FFFA283E433C454F04FFFA259
:1012E80084E43375F008A44FFFA285E43325E02594
:1012F800E04FFFA286E43325E04FFFA287E4334F97
:10130800F50BA291E43375F040A4FFA290E4337585
:10131800F080A44FFFA292E433C43354E04FFFA2FD
:1013280093E433C454F04FFFA294E43375F008A457
:101338004FFFA295E43325E025E04FFFA296E43362
:1013480025E04FFFA297E4334FF50CA2A6E43375CE
:10135800F040A4FFA2A7E43375F080A44FFFA2A534
:10136800E433C43354E04FFFA2A4E433C454F04F31
:10137800FFA2A3E43375F008A44FFFA2A2E433252B
:10138800E025E04FFFA2A1E43325E04FFFA2A0E44F
:10139800334FF50DE5082509250A250B250C250DE4
:0D13A800F50E7B007A0079087D0702161D06
:10164300D2B412174412000E1210291204EB121610
:10165300FDC2B4300820E55E6009AF48AE47120C06
:1016630018800ED3E55F946474809480401A755E8D
:1016730001E4F55F80121213B5300D0612119412B6
:0D16830004EB3009031212B812153680C6B0
:03000B000216904A
:10169000758CB8758A00C28D055F300B04056280B9
:1016A00003756200300C0405638003756300300A23
:0816B000030560327560003291
:0300230002159F24
:10159F00C0E0C0D075D000C000C004C006C0073086
:1015AF009838C29878B3E6249AF8A699789AE664A0
:1015BF00FD702378B306789BE62402FFE433FE78B0
:1015CF00B3E67C00B50713ECB5060F1806087600D6
:1015DF00789A7600800478B37600D007D006D004CE
:0715EF00D000D0D0D0E032A3
:0300000002176381
:0C176300787FE4F6D8FD7581D0021643B3
:100EB900E709F608DFFA8046E709F208DFFA803E1B
:100EC90088828C83E709F0A3DFFA8032E309F60808
:100ED900DFFA8078E309F208DFFA807088828C8370
:100EE900E309F0A3DFFA806489828A83E0A3F60824
:100EF900DFFA805889828A83E0A3F208DFFA804CFE
:100F090080D280FA80C680D4806980F280338010D4
:100F190080A680EA809A80A880DA80E280CA80333D
:100F290089828A83ECFAE493A3C8C582C8CCC583B5
:100F3900CCF0A3C8C582C8CCC583CCDFE9DEE78085
:100F49000D89828A83E493A3F608DFF9ECFAA9F004
:100F5900EDFB2289828A83ECFAE0A3C8C582C8CC5A
:100F6900C583CCF0A3C8C582C8CCC583CCDFEADE73
:100F7900E880DB89828A83E493A3F208DFF980CCD5
:100F890088F0EF60010E4E60C388F0ED2402B404CE
:100F99000050B9F582EB2402B4040050AF23234575
:060FA9008223900F097382
:100FAF00BB010689828A83E0225002E722BBFE0240
:090FBF00E32289828A83E4932273
:100FC800BB010CE58229F582E5833AF583E02250DE
:100FD80006E92582F8E622BBFE06E92582F8E22228
:0D0FE800E58229F582E5833AF583E4932242
:100FF500BB010989828A83F8E028F022500327F78C
:1010050022BBFE05F8E328F3228A838982F8E4935C
:0210150028228F
:10101700EF8DF0A4A8F0CF8CF0A428CE8DF0A42EED
:02102700FE22A7
:00000001FF
